:2000000000802020B7010000C3010000C301000000000000000000000000000000000000E0
:20002000000000000000000000000000C30100000000000000000000C3010000C301000074
:20004000C3010000C3010000C3010000C3010000C3010000C3010000C3010000C301000080
:2000600000000000C3010000C30100000000000000000000C3010000C3010000C3010000AC
:20008000C3010000C3010000C3010000C3010000C3010000C30100000000000000000000C8
:2000A000C3010000C30100000000000000000000C301000000000000C3010000C30100006C
:2000C0000D48002101600D48011F0A680323DB4313400B6041680122914341604168120262
:2000E00091434160016830229143016001680F22914301607047C04608030B4004010B4069
:200100000A4D0B4C0120860500F048F8284610380660204600F04AF82E60204600F046F87F
:200120002E60204600F042F82E60F2E7B0320A400024F40080B5064806494160064A516082
:20014000064901601160102000F030F880BDC04600080A40030000B100280A400100002654
:20016000064880F3088800BF00BF00F026F80020FFF7C6FF012000F022F8C04600802020D6
:20018000044881210160012080050349086008637047C046C8804240A0320A4080B5FFF77D
:2001A000C9FFFFF7EDFFFFF78BFF80BD811E091F00BFFCD27047D3E770470120704700BFC5
:0801C000FEE7FEE7000000006D
:00000001FF
