:040000006F20C01598
:1000040000000000000000009000002028050020EF
:10001400A9BDF9F5E0050020000000000000000083
:10002400E005002090000020000000000000000017
:10003400900000200000000090000020000000005C
:1000440090000020E2020020F60200209000002030
:1000540090000020540A0020A400002000000000AA
:1000640090000020900000209000002090000020CC
:10007400CC0200209000002090000020900000207E
:1000840090000020900000209000002090000020AC
:1000940001A0411106C6EF005056972000E0E7800A
:1000A400203FD5BFB787004003C76700098B6301B2
:1000B4000720411122C626C403C777009306000314
:1000C400137707036303D7089384118D03C50400D2
:1000D4001384418C0548B306A4002380060103C69B
:1000E40077001387818C2A971376F60F2300C700B5
:1000F40083C587001386C18C2A9693F5F50F2300D8
:10010400B60003470700130600021377F7036307DB
:10011400C718636EE6086305071109466300C70C38
:10012400630D071483C704003E940347040009CBFE
:10013400850793F7F70F0D476369F7162380F400DB
:10014400B787004009472383E700B787004083C788
:100154007700E207E18763D707049386118D83C78D
:1001640006001387418C05463E972300C70013877A
:10017400818C3E97130600032300C7001387C18CAC
:100184003E97214685072300C70093F7F70F0D47D5
:100194006373F70081472380F6000947B78700405F
:1001A4002383E7003244A2444101730020309306C4
:1001B40010026305D70A93062002E315D7F603C796
:1001C400A702134707042385E70203C7A70213778F
:1001D400C70F136727002385E702A9B703C7670082
:1001E400137707044DCB03C7A702130600049745F2
:1001F4000000938525F0134707082385E70203C70A
:10020400A70217450000130565DD1377370F136741
:1002140087002385E702972000E0E78040FF19B7B5
:1002240003C76700137707043DC703C767021306B4
:100234000004974500009385E5F3134707082383DB
:10024400E70203C7670217450000130525DD13778E
:10025400370F136787002383E70275BF03C767025D
:10026400134707042383E70203C767021377C70F03
:10027400136727002383E70275B503C76700137765
:10028400070411CB03C727021377370F13678700BF
:100294002381E70241BD2380060069B503C7270215
:1002A4001377C70F13672700E5B7A388018C49BDEF
:1002B400730020304111B7170040985F3AC6945F2D
:1002C4003247E39CE6FE324541018280B717004085
:1002D400130700032388E702854723AAF1947300D8
:1002E4002030371700408357C709C207C183231E34
:1002F400F70873002030371700408357E709835706
:10030400E709C207C18393F7F7CFC207C183231F4D
:10031400F708730020304111B7170040985F3AC6C0
:10032400945F3247E39CE6FE32454101828001112D
:1003340013078008F337078093F787083EC201004C
:100344000100B7170040930570052380B704130616
:1003540080FA2380C7040100010083C6B70493F622
:10036400F60DA385D704238007049246F3A60680DE
:100374000100010093760502D5CEF336078093F68B
:10038400860836C4010001002380B7042380C70413
:1003940001000100B70614007D89558D88C701004E
:1003A40001000100010023800704A246F3A6068091
:1003B4000100010073370780137787083AC60100EC
:1003C40001002380B7042380C70401000100010059
:1003D40001003727004093061005A303D78023802C
:1003E4000704B247F3A707800100010093078008C0
:1003F400F3B7078093F787083ECE01000100B717D3
:100404000040130770052380E704130780FA238054
:10041400E7040100010003C7B70413670708A385B5
:10042400E70423800704F247F3A7078001000100D3
:100434000561828093760504BDC6F336078093F682
:10044400860836C8010001002380B7042380C7044E
:1004540001000100B7061400938606047D89558DBA
:1004640088C7010001000100010023800704C2467F
:10047400F3A606800100010073370780137787080D
:100484003ACA010001002380B7042380C704010095
:1004940001003727004093062005A303D78023805B
:1004A4000704D24781B773370780137787083ACC9C
:1004B400010001002380B7042380C7040100010068
:1004C40098471367070C98C723800704E24719BFAE
:1004D4000111814601468145114506CE3924930711
:1004E4008008F3B7078093F787083EC60100010030
:1004F400B7170040130770052380E704130780FA39
:100504002380E7040100010003C767041367170091
:100514002383E70423800704B247F3A7078001007D
:100524000100F24005618280411181460146814506
:100534001145652A13078008F337078093F7870866
:100544003EC401000100B717004013067005238064
:10055400C704930680FA2380D70401000100FD55E7
:100564002396B70223800704A245F3A50580010062
:10057400010073370780137787083AC6010001002A
:100584002380C7042380D7040100010003C7670444
:10059400136717002383E70423800704B247F3A7F4
:1005A40007800100010001A0BD473305F5020100E9
:1005B4007D1575FD8280411122C426C206C6AA8417
:1005C400014463179400B240224492444101828062
:1005D40005041305803E4204C13F4180DDB700009D
:1005E4009305000273A045808245739015349240B0
:1005F4002242B2424243D2436244F24402559255EB
:100604002256B2564257D2576258F2580649964972
:10061400264AB64A464BD64B664CF64C065D965D6A
:10062400265EB65E465FD65F096173002030230301
:10063400048015472303E48001002302A480828000
:1006440083076480E3CE07FE23030480828083074C
:100654006480E3CE07FE0345448082808307648080
:10066400E3CE07FE2302A4808280411126C44AC23D
:100674004EC006C61377F50BAD47AA892E8995445B
:100684006306F70019456537653F8D444E85453748
:10069400FD59FD1463983401B240A24412498249C1
:1006A40041018280135509011375F50F453F220955
:1006B400CDB7011126CC06CEB70408005137154535
:1006C400BD37713769372AC6A53F32459377150080
:1006D40089EB136515001375F50FF240E2440561CB
:1006E4008280FD14E9FC0145CDBF397126DC4ADA6C
:1006F4004ED852D656D45AD25ED006DE62CE66CCDE
:10070400B7E700E07D5783AA070022C603AA470083
:1007140023A0E71823A2E718B717004013077005B2
:100724002380E704130780FA2380E70483C7470480
:10073400930B75FFB684E20793FBFB0F8546AA89EA
:100744002E8B328937240040E187015763FA760102
:100754006308D5008946130700026313D5000157C7
:10076400D98F93F7F70FB71C00402382FC0411477D
:100774002303E4801305F00F5D3D094CD135636D0F
:100784007C11B7050700DA9537870700795563F2BE
:10079400E504B3879500636EF702370B0800A94799
:1007A40033EB65016399F90689E48144513D26855B
:1007B4000DA0DA850945553D05090345F9FFFD14EA
:1007C400050B693D81C49377FB0FFDF7DD3569FDAA
:1007D4007D55B7170040130770052380E7041307FE
:1007E40080FA2380E70403C74704418B2382E7048C
:1007F400F250B7E700E023A0571123A24711E254B7
:1008040032445259C259325AA25A125B825B724C18
:10081400E24C21618280A5476395F9068569130935
:10082400F00FB3069900B3742B01B6941349F9FF82
:10083400B3749900856B33796901416B9387F9FF30
:10084400B3F7270199E363FC340193D94900C14705
:10085400E3E637FF99BF0569C1697D19D9B7130567
:10086400800D63886901130500026384790113050F
:100874001008CA85DD3B353D21DD4E99B3843441F2
:10088400D9B7DA852D45D533CA94E30099F2050921
:100894007D3BA30FA9FED5BF9387F9FF93F7F70F0D
:1008A4006361FC0C83C71C0413073008631FF7043F
:1008B40037070800636BEB04B3079B00B70610000F
:1008C40063F5D704334BEB0089476393F9068980BA
:1008D400D549E38C04ECDA850945413B110903272A
:1008E400C9FF91472320E48003076480E34E07FE99
:1008F40023033481FD17EDFBFD14110B81C49377A1
:10090400FB0FE9FF7D3371F5E1B5B717004003C76D
:100914005704B70708001377070219E3B7870700DE
:100924007955E378FBEA33079B00E3FFE7F855B515
:100934008547E382F9F2DA852D45053B9389F4FF77
:10094400E38504E6293393F7390091EB8326048089
:100954000327090093074900E39AE6E43E89CE841D
:10096400F1BFB5476396F9001305900BC93135BD46
:10097400B1471305B00AE38BF9FE99476391F90473
:10098400B7050800B365BB002D45C53181448D4BC7
:10099400A149753963967401832704802320F900E3
:1009A4008504E39834FF8327048013172B016355D0
:1009B40007002312F900D5BB2322F900FDB39D479C
:1009C4006399F90281451305B0044531BD442320E0
:1009D400090023220900FD599D3993F77400CA9731
:1009E40003C70700FD14398D2380A700E39634FF65
:1009F4006DBBA1476392F9046D398144630D0B000B
:100A04008D479304C0036308FB009304000563044B
:100A14008B01930440041375C507E30895D8194561
:100A2400393139390545213126850D3909453D319D
:100A34004931E31C05D669BB91476399F900130555
:100A44006006F536F53E130590090DB7E38F09D41A
:100A5400F154A9BB197106C212C416C61AC81ECA1B
:100A640022CC26CE2AD02ED232D436D63AD83EDA6A
:100A740042DC46DECAC0CEC2D2C4D6C6DAC8DECA9A
:100A8400E2CCE6CEEAD0EED2F2D4F6D6FAD8FEDA4A
:100A94009385C1948841E700050092402242B24206
:100AA4004243D2436244F244025592552256B2560E
:100AB4004257D2576258F25806499649264AB64ACE
:100AC400464BD64B664CF64C065D965D265EB65E8E
:100AD400465FD65F096173002030B7E700E09843B2
:100AE400B706200023A0D718758F0F10000001C58A
:100AF40099C1814711E6B7E700E023A0E71082809F
:100B0400B386F50003C80600B306F5008507238005
:100B14000601E317F6FEC5B737E700E01C43B70646
:100B240020002320D718F58F0F10000019C191C1A0
:100B340011E637E700E02320F7108280910503A730
:100B4400C5FF11057D16232EE5FEDDB737E700E06E
:100B54001C43B70620002320D718F58F0F10000080
:100B640001C53307C50011E637E700E02320F7107D
:100B740082800505A30FB5FEE31DE5FEF5B7B7E7D3
:100B840000E09843B706200023A0D718758F0F10F4
:100B940000008147B306F5008386060099E6B7E6B0
:100BA40000E023A0E6103E8582808507E5B737E79D
:100BB40000E01C43B70620002320D718F58F0F1040
:100BC400000001C599C1014711EA37E700E023207D
:100BD400F710054582800507E309E6FE3308E500C2
:100BE400B386E5000348080083C60600E305D8FE83
:100BF40037E700E02320F7100145828037E700E063
:100C04001C43B70620002320D718F58F0F100000CF
:100C14001307F6FFBA952A966317C50037E700E075
:100C24002320F7108280FD1503C715000505A30FC7
:100C3400E5FEDDB737E700E01C43B70620002320BC
:100C4400D718F58F0F10000001C53307C50019E64A
:100C540037E700E02320F71001458280050583462D
:100C6400F5FFE397B6FEE31BE5FE37E700E023203C
:100C7400F71005458280797197570000938787079D
:100C840022D4804306D626D24AD04ECE52CC56CA5F
:100C94005AC85EC679C0B7C4C901014B9759000050
:100CA4009389C9049384F437175A0000130ACA04B9
:100CB400975A0000938ACAFE17590000130989083D
:100CC4008357240095E35C44631D0B001757000011
:100CD4002322F702832BC4002285EF00F01E5E84DA
:100CE400B9A82326FB00FDB783A7090082971C44FB
:100CF4003307F5406376F500032749001D8F2A97D3
:100D040063E2E4089757000023A407FA83552400FC
:100D140003450400978000E0E780E0245C405844E9
:100D2400A1CB0C4403264900AE97BE8663E4B7000A
:100D340063E4C700B386C74014C4228B3A8449F0E5
:100D4400975700009387C7F59C4B09476372F706D2
:100D5400F91717570000232DF7F4B2502254925478
:100D64000259F249624AD24A424BB24B45618280EF
:100D740063170B009757000023AEE7F6A1BF2326A5
:100D8400EB0089BF03274A0209CF63EFA70033852D
:100D9400A74083A70A016376F5009757000023A9AB
:100DA400A7F0228B404461BF03274900BA97C5B717
:100DB4009757000023AE07EE4DB79757000093876F
:100DC400E7F79C4385C3411106C6829797570000F5
:100DD40083C7A7F189E79757000023A107F6B2401C
:100DE400410182809757000083C727F091E7975706
:100DF400000023A507F482808280411122C4175485
:100E040000001304A4EC1C4006C626C24AC091C7C5
:100E140082979757000023AB07EA9757000083C7D0
:100E2400B70B858B175900001309C90A89CF83476B
:100E3400790019476312F71097570000A38E07082B
:100E440031235C4482971C4491C3829797540000D9
:100E5400938404EA984017560000034676E49757B3
:100E6400000083C7E7E393961700BA9683D606007B
:100E7400E5C29757000083C7A7E263E5C70E9757FB
:100E84000000238F07E01C40639E0714975700005F
:100E94009387C7E59C43638707149757000093879C
:100EA40067EADC43175700002324F7E0E933975738
:100EB400000083C7D702639707129757000083C7C0
:100EC400F70191CF8347790093F7F70F89EB975791
:100ED4000000A3850700978001E0E780800B975707
:100EE4000000938767E1DC53638E070E9757000079
:100EF400938707DB9C4BFDC78347790015476363E2
:100F0400F70E9757000083C76702918BE1EF97575D
:100F1400000083C787DDF9E790409756000083C639
:100F240036D863C7D70C2244B240924402494101E7
:100F3400178300E06700C365834779001D47E31406
:100F4400F7F097570000A38907F809211C48DDBD75
:100F5400850793F7F70F975600002383F6D4E3E051
:100F6400C7F001BF86073E9783550700231007008B
:100F740097570000239A07D6975700009387C7D442
:100F84009C43175500000345A5D113172500BA97B4
:100F94009C4382979757000083D707D517570000C3
:100FA400034707D093C7F7FF7D8D93171700984029
:100FB4003E97835707005D8D2310A70097570000C5
:100FC40083C707CE91C7850717570000230AF7CCBC
:100FD400175700000347C7CC9757000083C757CC67
:100FE400E37FF7E8B24022449244024941018280FF
:100FF400139717003297035707006DF7850715B746
:1010040037C700408326C720B707FCFFFD17F58FBD
:101014002326F7200100010097570000938747C853
:10102400C84F832787262326D7206A0593C7F7FF4F
:1010340099835D8D8280011197570000938787FA09
:1010440022CC03A4070C26CA06CE2AC42EC6854485
:1010540019E40145F2406244D24405618280834729
:10106400910003471400858B6304F7000044CDB757
:1010740019469305A10013052400153EE31895FEB7
:101084000545C9BFEFF07FD37300000000000000E6
:1010940097520000938262C50383020023800200FA
:1010A400630F0300F32510342EC0970500009385C9
:1010B400A5FD73901534EF00204C7300203086DCBE
:1010C400EF00804BE65082800000175700001307A2
:1010D40027E01443411122C49C5E4AC006C699838A
:1010E40026C2858B3A8417590000130929DED1CB17
:1010F400930700069CDE17570000034707DE93079B
:101104000008975400009384E4DC631BF7008327F2
:1011140009009C4393F7070417570000230FF7DADD
:1011240083C7040093F707049DC397570000938770
:10113400E7BB9C4382979757000023ABA7DA83C78A
:10114400040093F7F70B175700002305F7D883C75C
:10115400440093F7070495E7854717570000A30D4C
:10116400F7D697570000938767D99C433707020047
:1011740098C7130700FC97560000238FE6D49848BD
:10118400F8D318401C5F9183858B8DC31C5F93E754
:1011940007011CDF97570000938747D69C4323A27F
:1011A40007068547175700002308F7D2832709004D
:1011B400D8430583058B19C7D843759BD8C3D84337
:1011C400799BD8C3B24022449244024941018280AF
:1011D400ED3D730020309317D50063D30702975772
:1011E40000009387A7D19C437D57B8D79757000039
:1011F400938707ABDC4F8507175700002320F7AC14
:10120400937785008DC39757000083C7C7CC93E7B6
:101214001700175700002300F7CC930700F817575F
:101224000000230BF7CA9377150099CB975700005A
:1012340083C757CA93E7170017570000A30CF7C8D2
:101244009377650095CF17570000A30707C8137756
:101254004500975700009387E7C74DCB83C7070026
:1012640093E71700175700002306F7C697570000A7
:10127400938707C698435C57F19B93E717005CD7A5
:101284009317F50063D4070217570000034707DDDF
:10129400418B975700009387E7D451C383C78707CF
:1012A40093E7070217570000230AF7DA9317E500BC
:1012B40063D707029757000083C707C2E207E18795
:1012C40063D707008547175700002307F7C09757D0
:1012D40000009387A7C29C433707020098C793175F
:1012E400C50063D4070217570000034737D7058B9F
:1012F40097570000938707CF29C383C7970793E7BE
:10130400270017570000A30BF7D4828083C7370048
:1013140093E7170017570000A30FF7BA81BF03C75D
:10132400870789463D8B6308D70083C787070D4726
:10133400BD8BE39DE7F69147B5B703C79707118BBC
:1013440069D783C7970793E7870065BF975700005E
:101354009387C7BA9443975700009387A7B703C7E7
:101364000700058B11CB97570000238707B69757C3
:101374000000A38307B6828003C71700058B65F7B7
:10138400F85271FF83C75700DDB7175700001307E2
:1013940027B403280700832788039583858BADEF43
:1013A40011C683270803BD832300F6009DC61C4392
:1013B400985B4607935767016356070093E707C096
:1013C400C207C18303970600C207C18709C7BA973A
:1013D4000947B3C7E7022390F6008DCD8345150076
:1013E40095C99757000083C747AF93F7070413873E
:1013F4009500894585C33A95834705000547994576
:1014040093F6F7066398E600E207E187814563D324
:101414000700B9452E8582808545EDBF411126C25E
:1014240006C622C497540000938444AD3DED944015
:10143400AE87F8527DFF37F400E03E8597570000F1
:10144400238B07A8832704D1B285ED9B2328F4D0EE
:10145400832704D193E787022328F4D07300501024
:10146400978001E0E780409A97570000938747A64A
:101474009C43B70680009843558F98C3D857719BF7
:10148400D8D797570000A38907A497570000A383D0
:1014940007A49C40094798C3832704D193E7870096
:1014A4002328F4D0730050100DA08D476315F50464
:1014B400975700009387C7A19C43B70680009843C1
:1014C400558F98C3D857719BD8D7944017570000AD
:1014D400130747A083472700858B89EB8347370091
:1014E400858BC1CB975700002388079EB2402244C6
:1014F4009244410182808547E319F5FCB7F700E087
:1015040003A707D16D9B23A8E7D003A707D11367CF
:10151400870223A8E7D07300501098408177FD1705
:101524005447F58F5CC70F1000009840B7070200BE
:101534001CC7930700F817560000230FF698975717
:1015440000009387E7989C439C439D83858B639F0E
:10155400A700930760197CD354C737F700E08327AB
:1015640007D193E787002328F7D02DBF9307E01B0B
:10157400DDB7FC52A5F39DBF9757000093870798EA
:101584009C438847D847798D09C988C79387019EAA
:1015940003A30700630303000283828097570000BC
:1015A4009387C79598438967938707F47CD39757A4
:1015B40000009387E7999C4383A607091396560076
:1015C4006358060083A60709139666006344060061
:1015D4007453FDF282804111B7E700E022C48043D6
:1015E4003707200006C6798C23A0E7180F100000E7
:1015F40011C199E5B7E700E023A0871001457DA854
:1016040093073500C207C183F19BC207C183130747
:1016140040036369F702175700001307279C084328
:10162400175700001307079B14436392A60217473A
:1016340000001307676C185B55DFC207DD8D054595
:1016440002974DBF1757000013070799C9BF0357E7
:1016540065002DEB035745006366F706B306F740B4
:101664002146637CD60203280500938687001D8FDC
:10167400AA966117174600000356E6622392E60015
:1016840023A006012393060014C12312F5001307B7
:1016940086FF974600002398E6602313B50097451C
:1016A400000083D54560B387F54017470000231C2D
:1016B400F75EB7E700E023A087102105B24022447B
:1016C40041018280084195B7B7E700E08C433707B2
:1016D400200023A0E718F98D0F10000001E523A0D6
:1016E400B7108280975700009387478F03A30700A2
:1016F400975700009387078E83A8070081469A872F
:1017040063F2170D03A807006361F50C636FA80A61
:10171400138787006368E50A03D667002167050716
:101724006317E60003C7819D0507238CE19C1745D9
:1017340000001305E55603D64700035765002393BD
:101744000700329742074183174E0000231DEE54D1
:10175400638C6702175300001303038803230300F9
:101764006304F30203D366006310030283D74600C5
:1017740023A0060121073E9621062392C60097471F
:1017840000002392E752B6879843630D17039756D8
:1017940000009386668494426306D70283566700EA
:1017A40095E283D64700035647001843A106B29634
:1017B4002392D70098C383576500A10717470000F9
:1017C4002313F74EB7E700E019BFBE86C2870DBFEB
:1017D4000327851163020712411122C406C68347F9
:1017E400C5008345E5042A8493F7C70F2306F50053
:1017F400834697000356C70013958601618563F2FB
:10180400C508635B05060345870093F6F607A30442
:10181400D700054693E627006314C50093E6170036
:101824002306D4005C4389075CC3A30AB4000325E0
:1018340004112E864C430905EFF02FAA8327841147
:1018440003465401D44303D7C700B296118FD4C3BF
:101854002396E7008947A30DF400034764039747E1
:10186400000083C7874A6378F7048347C40093E77B
:1018740007012306F40081A093E717002306F40070
:101884006DB79376F60F635D0502034587008545C2
:1018940013E627006314B50013E617002306C400FB
:1018A400A30AD400A30407008547A30DF4008327EB
:1018B40084119C43DDF3B2402244014541018280FE
:1018C40093E717002306F400A30AD400A304070037
:1018D400032504114C430905EFF02FA0832784113D
:1018E40003465401D44303D7C700B296118FD4C31F
:1018F4002396E7008D4755BF054582809757000022
:10190400938707819C43411122C406C6858B2A8490
:10191400C5EF4165130525F5974002E0E78020F007
:1019240045C58347A5002315F50083270412BDE7A9
:101934002320A4122322A41285472311F404232074
:1019440005008347640154412316F5000347D4007E
:101954002304E5000547A304E50017470000130727
:10196400675758531385170215811C437D1513754A
:10197400F50F9CC25C43DCC21C479CC65C47DCC6BA
:101984001C4B9CCA5C4BDCCA1C4F9CCE5C4FDCCE0F
:1019940019CD9386060213070702C1BF8327441299
:1019A40088C3835724042322A412850779B7974751
:1019B400000083D7A7638507174700002318F76241
:1019C400B2402244410182808347C40023090400B9
:1019D400054593C747002306F400DDB78347850117
:1019E40093F7E70FD5EF83479501DDEB0346250118
:1019F4008346C50009CA83456503174700000347AA
:101A0400D73063E7E50013F7060141CF014709C664
:101A1400C18A0357651C81C68356A51C369751C3DA
:101A24001307C7121745000003554532B335A70203
:101A340037460F00411113060624814622C426C2EC
:101A440006C67D543305A702977002E0E78060B2B2
:101A54009747000083C7B72BB384A70097470000BC
:101A64009387475803A787098327070963F38700E8
:101A74003E84184375FB97470000938727279C43B0
:101A8400829781476364A400B307A440B240224410
:101A9400B3B7970093C7170092443E8541018280F3
:101AA40081473E8582809747000093872745984366
:101AB4003C5BFDFF010001008280011122CC4AC879
:101AC4004EC606CE26CA52C456C25AC00347B500F3
:101AD40085472A842E89832905096310F7208357B3
:101AE4000508035BC503974A000083DA2A26174AD0
:101AF4000000130A2A2563FA671B834605016396CF
:101B0400E61A032785116312071A0327450A631E81
:101B140007188346F5001D476399E6180355A50386
:101B2400330BFB409307204E33056503832444099C
:101B340037460F008146130606243305F5029747FE
:101B4400000083C7C71CB3549502B3B5AA02BE9460
:101B5400C204C180231394083385AA02977002E05B
:101B6400E78020A1B307350133B5A7002E953E8742
:101B740083264A0019E163E4D7003387D740B3844E
:101B84005403B7460F009387F62393860624232035
:101B9400E900A697B3D7D702DA976362F7101D8FCF
:101BA4002320E900974900009389491483A7090079
:101BB40083240900829763E5A4123385A440635407
:101BC400050C83A709008297032709006361E512C6
:101BD400198D8357E40317470000035727178E070F
:101BE400B387E7021307003293870719B3D7E702D5
:101BF40063E7A710374A0F00130BFA23974A000034
:101C0400938A4A14130A0A24835704048507231069
:101C1400F4048347041499E32285592A22859730D2
:101C240002E0E78060B475E9832604098327C408C9
:101C340003A74A00B6973E8563E4D70063E4E70050
:101C44003385E7408347F401835464082328A408B8
:101C54008507A30FF4009747000083D7270FB384A9
:101C6400F402DA94B3D444036368950CB304954046
:101C740083A7090023209900829763E3A40C33858A
:101C8400A440E34305F89747000083C7570863E778
:101C9400A7089747000023A7873E014541A0832654
:101CA4004A00B387F6403E97E5BD8354640837473E
:101CB4000F009307F723B3845403BE9493070724B8
:101CC400B3D7F40263E7F900B387F9402320F9009E
:101CD400D1BD03274A00BA99C5BF23A03501D9B5A0
:101CE4009747000093870706DC43BE94F9B59747EE
:101CF400000093872705DC43998F3E95D9BDA14504
:101D04002285973002E0E780009FA305A40297474D
:101D14000000938767FE9C5B81EF7D55F24062442F
:101D2400D2444249B249224A924A024B0561828016
:101D3400894515458297D5B7B3049740AA940DBF3A
:101D440083A74A00BE9425BF3DC101116C0022CC7B
:101D540006CE2A849D3339C5FD57630AF50297469A
:101D64000000938666F9D45232479747000083C730
:101D740017FA91C285836360F702B307F7403EC642
:101D8400B24503459402977000E0E780A035F24025
:101D9400624405618280974600009386A6FAD44285
:101DA4003697E1BF973002E0E7806058CDB7828074
:101DB400797126D206D622D44AD04ECE52CC56CAF7
:101DC4005AC85EC68347550303447513AA843E94D8
:101DD4001374F40F9307400263F687001304B4FDF1
:101DE4001374F40F03AA841383AAC413A38B841259
:101DF40022865285D685976002E0E7800034058903
:101E040015E503CBD41201498149337B6403930B59
:101E140050024A865285D685976002E0E780E03119
:101E2400058915C5639169031374F90F238B841213
:101E3400B250225492540259F249624AD24A424B55
:101E4400B24B456182808509E20993D9894105092C
:101E5400E31179FDE1BF83278509035605047971F0
:101E640093D60701BD8EC206C182358E13577640C4
:101E740093575640898B058B5D8F93573640918BD2
:101E84005D8F93571640A18B5D8F93171600C18BFE
:101E94005D8F9317360093F707025D8F93175600F3
:101EA4009355860093F707041E065D8F1376F60F8D
:101EB400518F93D7554013D63540118A898BD18FD2
:101EC40013D67540D18F13D61540218AD18F13961E
:101ED4001500418AD18F1396350013760602D18FEF
:101EE40013965500137606049E05D18F93F5F50FCE
:101EF400CD8FA20745465D8F3307C70222D42A84BB
:101F040026D252CC56CA032A8413832AC4135AC82D
:101F140006D6369742074183935777401355574067
:101F24000989858BC98F135537401189C98F13557A
:101F340017402189C98F131517004189C98F1315BB
:101F4400370013750502C98F131557009355870081
:101F5400137505041E07C98F1377F70FD98F13D58F
:101F6400354013D755401189098B498F13D57540D6
:101F7400498F13D515402189498F1395150041893F
:101F8400498F1395350013750502498F1395550034
:101F9400137505049E05498F93F5F50F4D8F2207A0
:101FA400D98FB387C7024AD04ECE5EC662C4B697F5
:101FB400C207C18313D7774013D557400989058BCE
:101FC400498F13D537401189498F13D5174021897B
:101FD400498F139517004189498F1395370013755D
:101FE4000502498F1395570093D58700137505048F
:101FF4009E07498F93F7F70FD98F13D5354013D721
:1020040055401189098B498F13D57540498F13D5D4
:1020140015402189498F139515004189498F1395DE
:10202400350013750502498F139555001375050482
:102034009E05498F93F5F50F4D8F2207D98FB387EE
:10204400C702130650025285D685B697BD8E939467
:102054000601C18033F6C402137BF60F976002E0D9
:10206400E780A00D05890DED8347D412014981490C
:10207400B3849702130C5002C1804A865285D685D8
:10208400976002E0E780600B0589937BF90F11C527
:1020940063863403850993F9F90F0509E31F89FD64
:1020A400230B6413B250225492540259F249624AE7
:1020B400D24A424BB24B224C456182805E8BCDB7F3
:1020C4000111974700009387E7F122CC03A4870C02
:1020D40026CA4AC84EC606CEAA84130925008549D5
:1020E40015C083C7140003473400858B6304F700CD
:1020F400405CFDB71946930544004A85EFE03FABC9
:10210400E31835FF2285F2406244D2444249B24981
:10211400056182804111974700009387A7EC22C490
:1021240003A4870C26C24AC006C6930425000549A9
:1021340001E82285B240224492440249410182804E
:10214400A6851305A402974002E0E780C07AE30263
:0821540025FF405CF1BF000013
:10215C00971100209381C1B2174100201301C1696E
:10216C001305400097E5FF1F938505E9170600202E
:10217C00130606FE63FAC5008322050023A0550052
:10218C0011059105E3EAC5FE17A502001305851597
:10219C00970500209385C5FB1386818B63FAC500D8
:1021AC008322050023A0550011059105E3EAC5FE25
:1021BC001385818B97450020938505F66377B500D1
:1021CC00232005001105E36DB5FEFD42739002BCA2
:1021DC008D4273904280930280087390023097E294
:1021EC00FF1F938262E193E23200739052309702A8
:1021FC0000009382C20573901234730020302A833E
:10220C0009CA83830500230073007D160503850529
:10221C006DFA82802A8311C62300B3007D16050354
:10222C0065FE828015C22A8385466367B500FD561C
:10223C001307F6FF3A93BA958383050023007300C6
:10224C007D163693B6956DFA828041111305800484
:10225C0006C697E0FF1FE780000DEF10A061014557
:10226C00EF5080580545EF50E058EF40007317854C
:10227C0002001305E5ECEF60721BEF40700DEF40B0
:10228C001024EFD08173EF103079EF408072EF3073
:10229C00A05997E0FF1FE78040DFB2862E86AA8503
:1022AC002D4517E3FF1F6700C343B2862E86AA8510
:1022BC00294517E3FF1F6700C342AE860146AA8576
:1022CC00254517E3FF1F6700C341797122D406D659
:1022DC002E84814717270020130747D81308F00FC7
:1022EC00A9453386E7000346060093F6F70F630B08
:1022FC00A600630606018507E395B7FEA946369747
:10230C002300A70097270020938787D4B6972380B4
:10231C008700E147630AF50093077002630DF50A25
:10232C00B25022544561828013773400954711CB0B
:10233C00854699476307D70089469D476303D700B5
:10234C00A1471378440033380001937884030508BF
:10235C00638108022147638AE80661476389E806BE
:10236C00130780026387E806130780036393E80072
:10237C0091481387418E23020701A30217012303FF
:10238C00F70042CE46CC3ECAEF5060460D47D247CE
:10239C00E24872486377A702198013441400058839
:1023AC0097860200938646DA22C01787020013072D
:1023BC0067D917860200130666D9B6851145EF500A
:1023CC00C04385472381F18EA1BF85485DB78948FD
:1023DC004DB78D4879BFEF5080418D47E3F2A7F49C
:1023EC00A2872254B250978602009386E6D51787AF
:1023FC000200130727D517860200130626D8B685C8
:10240C00114545616F50603FAA8723800500014745
:10241C0017250020130585C41308F00F2946B306B1
:10242C00A70083C606006393F602972600209386C6
:10243C0026C236970347070005452380E5001D4754
:10244C00636DF7001547636EF700828063850601A4
:10245C000507E316C7FC0145DDB761476386E70056
:10246C00828023800500828003C70500B7370040B7
:10247C0083C7370013770704D98F2380F500828038
:10248C001D71CEC686CEA2CCA6CACAC8D2C4D6C22C
:10249C00DAC05EDE62DC66DA1387018D83440700E6
:1024AC009389418CB387990083C70700ADC3938789
:1024BC00140093F7F70F8D4663F3F6008147230062
:1024CC00F7009387818CA69783C7070093060003B8
:1024DC0013F7F70F93F7F70363EEF6001377070282
:1024EC0041EB05476385E7160947638AE70A99E3D9
:1024FC006F00B077B7E700E03707400023A0E7187C
:10250C0001000100A6992380090023A0E710B787DA
:10251C00004003C76700058B19E36F10600383C687
:10252C00618F05476384E6006F10C0002947238143
:10253C00E70209472383E7022385E702A380018C86
:10254C002380018CB7870040A3810700A388018EEC
:10255C0005472383E700F6406644D6444649B6490E
:10256C00264A964A064BF25B625CD25C25618280FD
:10257C00811793F7F70F4147E36EF7F617870200C1
:10258C00130707E18A07BA979C43BA978287FD57CE
:10259C00A38FF18A85B7FD57238FF18AA1BF93874B
:1025AC00C18CA69703C40700EF5060248D471374A9
:1025BC00F40F63F3A702978602009386E6B8A2870E
:1025CC0017870200130707B8178602001306C6BC4C
:1025DC00B6851145EF506022EF50602109496372B6
:1025EC00A902EF50C020637EA9008D462286972554
:1025FC0000209385E59D178502001305E5B4EF5087
:10260C00E0280546A285172500201305659CEF40A0
:10261C0060268547A389F18C2389818CA380F18E58
:10262C0037E700E0B70640002320D718010001006F
:10263C00378600408347A60293F7370F2305F6022F
:10264C002320D71045BD8547238AF18C65B5938728
:10265C00C18CA69703C40700EF5060198D47137403
:10266C00F40F63F3A702978602009386E6ADA28768
:10267C0017870200130707AD178602001306C6B3AF
:10268C00B6851145EF506017EF506016094963721B
:10269C00A902EF50C015637EA9008D4622869725AE
:1026AC0000209385E596178502001305E5A9EF50E8
:1026BC00E01D0546A2851725002013056595EF4002
:1026CC00601B8547238BF18CA38A818CA380F18EB0
:1026DC0037E700E0B70640002320D71801000100BF
:1026EC00378600408347660293F7370F2303F602C1
:1026FC0081BF8547A38BF18CF5BB9387C18CA697C3
:10270C0083C7070021471389C18E13F6F70FE39C8B
:10271C00E70E172A0020130A2AA983476A00938A16
:10272C00B18E2380FA0083477A0081C7FD5723803E
:10273C00FA0003470A0083471A001374070662075E
:10274C002300F9006187635C07061307000463012B
:10275C00E40C630B044213070002E316E40AE38D56
:10276C00872E13071002639CE706EF5040088D4735
:10277C0063F4A70283474A00978602009386C69C9F
:10278C00178702001307079C178602001306C6B9A9
:10279C00B6851145EF50600623AC418B9387418E73
:1027AC0003C76700944383D747002303EA00232021
:1027BC00DA002312FA00130400081D4AA9A113071A
:1027CC000004630DE4066303043C13070002E31CDE
:1027DC00E402E386871813072002E38FE722EF5009
:1027EC0000018D47E3F1A702834709009786020099
:1027FC0093868695178702001307C79417860200E5
:10280C001306C6B0B6851145EF40307F6F00A07F30
:10281C00130400081307100A6387E71C6362F702AE
:10282C0013075009638DE7161307A0096386E702A7
:10283C001307F0056382E734014AF1A60144D9BFBE
:10284C001307400A638FE7301307200BE396E7FE6C
:10285C0085472381F18ECDB703452A00C947834AAA
:10286C003A0083454A00034A5A006315F512CD47D6
:10287C006392FA12930770086398F5041307300FEC
:10288C00B7170E006308EA009307900D6310FA1057
:10289C00B7B7040023A2F18E3ECEEF4050750D4722
:1028AC00F247E37BA7F8978602009386E6891787A1
:1028BC00020013072789178602001306E691B685D6
:1028CC001145EF4090738DBF93078008639DF50011
:1028DC00330A4041B7774600137AFA0F938787CDB6
:1028EC00B3D7470345BF93079008639AF500330AA3
:1028FC0040419167137AFA0F9387C766D5B7930750
:10290C00A008639BF500330A4041B7173D00137ACA
:10291C00FA0F93870790E9B79307B008639AF5000D
:10292C00330A40419167137AFA0F938797D04DBFC2
:10293C0093F5F5078D47639BF500330A4041B79734
:10294C005B00137AFA0F938707D859BF8947639BAB
:10295C00F500330A4041B7770B00137AFA0F9387CF
:10296C00071BBDBF8547639AF500330A4041DD67FD
:10297C00137AFA0F938767E3A5B789E9330A4041C5
:10298C008D67137AFA0F938777DC99BFF16793877A
:10299C00072009B71D3AD2855685053A71BD034506
:1029AC002A00034B3A0093056102B93C930571026E
:1029BC005A85993C2C1023ACB18A834761022304BD
:1029CC00F10283477102A304F102894709461715E6
:1029DC0000201305657D2380FA0097E0FF1FE78038
:1029EC00400F094A0DA483072A00E3D707E4834765
:1029FC003A0013F7370009CB85466302D70889469E
:102A0C006315D7001D4611A0154613F74700333741
:102A1C00E00093F78703050785C3A1466383D706B8
:102A2C00E1466382D706930680026380D70693063D
:102A3C0080036393D70091479386418EA382F6005F
:102A4C0083474A002382E6002383C60013F607045B
:102A5C0003475A000DEE93F7770C1306700863903A
:102A6C00C70A1306300FB7170E006308C700930789
:102A7C00900D6314F70EB7B704009CC231BD194614
:102A8C0069B7854755BF894745BF8D4775B713064D
:102A9C007008E388C7FC1306800C639DC7003307DE
:102AAC00E040B77746001377F70F938787CDB3D7FE
:102ABC00E702E1B71306900C639AC7003307E040B6
:102ACC0091671377F70F9387C766D5B71306A00CDA
:102ADC00639BC7003307E040B7173D001377F70F30
:102AEC0093870790E9B71306B00C639AC7003307B6
:102AFC00E04091671377F70F938797D04DBF93F70B
:102B0C00F7070D46639BC7003307E040B7975B00A0
:102B1C001377F70F938707D859BF0946639BC700F4
:102B2C003307E040B7770B001377F70F9387071B3A
:102B3C00BDBF0546639AC7003307E040DD671377D6
:102B4C00F70F938767E3A5B789EB3307E0408D67F1
:102B5C001377F70F938777DC99BFF167938707207B
:102B6C0029BF83472A00C18B89C78547238FF18CE6
:102B7C00E1B1238F018CC9B12C1023ACB18A93071E
:102B8C0000032314F10291B5130400082947636C68
:102B9C00F746178702001307E7838A07BA979C4307
:102BAC00BA978287034B3A008D476306FB12138A50
:102BBC00818B63EC670785476304FB080947630453
:102BCC00EB0C83C70A001307000413FAF70F6374A6
:102BDC00F700130A0004138B818B83250B0052869C
:102BEC00171500201305455C97E0FF1FE78060EE8A
:102BFC0083C70A00B38747412380FA0083270B0061
:102C0C00D2972320FB008347090015476397E76899
:102C1C00B7E700E03707400023A0E71801000100E8
:102C2C00B78600402380460375AD9947E31BFBF83C
:102C3C0097870200938747872320FA00A9472DA87E
:102C4C0083C7618F4946978502009385E58A639611
:102C5C006701978502009385E583171500201305FE
:102C6C00252797E0FF1FE780C0E697170020938782
:102C7C0027262320FA00C94703C70A00E3F3E7F429
:102C8C002380FA003DBF03C7618F171B0020130B75
:102C9C002B246312F70213067002977502009385BA
:102CAC00E57C5A8597E0FF1FE780A0E2930770024E
:102CBC0023206A01D1B7130630049775020093855F
:102CCC00657F5A8597E0FF1FE780A0E093073004EB
:102CDC0023206A0155B7EF4090316374AB028347F0
:102CEC002A00977602009386264617770200130770
:102CFC006745177602001306E64FB6851145EF407F
:102D0C00D02F03C7618F85476310F70CEF40302E2F
:102D1C008D4763F4A70283472A00977602009386B7
:102D2C00A642177702001307E74117760200130635
:102D3C00664CB6851145EF40502C83472A00BDCF19
:102D4C001387F7FF1377F70F8946E3ECE6E60547A1
:102D5C00177A0200130ACA6A638CE700177A02001A
:102D6C00130A8A6C6396D700177A0200130A4A6A10
:102D7C005285EF50F2721375F50F13071500971764
:102D8C0000209387E71406072380E7000D47A380F4
:102D9C00E700BE8601473306EA0003460600050736
:102DAC00A38107002381C7001376F70F8907E3641B
:102DBC00A6FE23ACD18A83C706007DBD938781858F
:102DCC0023ACF18A91474DBDEF4070228D4763F4DF
:102DDC00A70283472A00977602009386E636177778
:102DEC00020013072736177602001306A640B68595
:102DFC001145EF40902083472A00E9D31387F7FF52
:102E0C001377F70F8946E3EEE6DA0547177A0200E7
:102E1C00130A4A62638CE700177A0200130A0A64E9
:102E2C006396D700177A0200130ACA615285EF50D5
:102E3C0032671375F50F130715009717002093874A
:102E4C00270906072380E7000D47A380E700BE860D
:102E5C0001473306EA00034606000507A381070075
:102E6C002381C7001376F70F8907E364A6FE91B799
:102E7C00EF40F0178D4763F4A70283472A0097763B
:102E8C0002009386662C177702001307A72B177680
:102E9C00020013066637B6851145EF40101693876E
:102EAC00018F03C7570013674700A382E70003474E
:102EBC002A00A380E70049B2EF4070138D4763F2FC
:102ECC00A70297760200938626281777020013072D
:102EDC006727177602001306E634B6851145EF40D6
:102EEC00D01183C7018F2300FA0003CA0A00333ABA
:102EFC00400111BBEF40B00F8D4763F2A7029776EC
:102F0C00020093866624177702001307A72317760F
:102F1C00020013062633B6851145EF40100E938739
:102F2C00018F03C7570013670701A382E70003470C
:102F3C002A002380E70009B2EF40700B8D4763F243
:102F4C00A7029776020093862620177702001307B4
:102F5C00671F177602001306E630B6851145EF4061
:102F6C00D00903470A007D8B35EBB787004003C7B8
:102F7C0067021377C70B136727002383E70203C786
:102F8C00A7021377C70B136727002385E70203C734
:102F9C00E7021377C70B136727002387E70203C7E2
:102FAC0027031377C70B136727002389E70285478D
:102FBC00A38BF18C238AF18C238FF18AA38FF18A56
:102FCC00238B018CA389018CA38E018A238E018A09
:102FDC00A380018C2380018C6FF01F8689476314BA
:102FEC00F70283474A0093061008638BD70C63EBF8
:102FFC00F6048D466388D70A63ECF6028546638D2A
:10300C00D70C6388E70AFD572300F9003707400007
:10301C00B7E700E023A0E71801000100B7860040E5
:10302C001306F0FC2381C60223A0E7106FF08FCCAF
:10303C001147E39AE7FC378700408347270393F750
:10304C00370789A0130730086382E7041307400889
:10305C006382E70213072008E397E7FA37870040FB
:10306C008347A70293F7C70B93E727002305F702C3
:10307C006FF08FFC378700408347270393F7C70B0C
:10308C0093E727002309F7026FF00FFB3787004007
:10309C008347E70293F7C70B93E727002307F70251
:1030AC006FF08FF9378700408347E70293F73707B4
:1030BC00F5B7378700408347A70293F737077DB7EB
:1030CC00378700408347670293F7C70B93E72700C6
:1030DC002303F7026FF04FF63787004083476702F0
:1030EC0093F73707F5B7EF4080708D4763F2A7026F
:1030FC00977602009386460517770200130787041C
:10310C00177602001306C617B6851145EF40E06E20
:10311C0097170020238A0708C9BBEF40406D8D47E5
:10312C0063F2A702977602009386060217770200D5
:10313C00130747011776020013064616B68511458C
:10314C00EF40A06B971700202390070683C70A0057
:10315C00094713FAF70FE378F7AA6FF09F88EF404F
:10316C0000698D4763F2A702977602009386C6FD2D
:10317C0017770200130707FD177602001306861354
:10318C00B6851145EF40606701440D4B977B0200FB
:10319C00938B4BFB177C0200130C0CFB977C0200EF
:1031AC00938C0C13A14AEF4080646370AB02B3079D
:1031BC008A0083C707005E87E286668697750200E1
:1031CC00938585F81145EF4040630504E31D54FDDC
:1031DC00EF40E0618D4763F2A70297760200938679
:1031EC00A6F6177702001307E7F517760200130609
:1031FC00660FB6851145EF40406083474A0091E762
:10320C00A38C018C01446FF02FE30947E39DE7DEAB
:10321C008547A38CF18CFDB7EF40605D8D4763F65D
:10322C00A70203483A0083472A0097760200938648
:10323C00A6F1177702001307E7F0177602001306C2
:10324C00260BB6851145EF40405B83472A00B33708
:10325C00F000A38BF18E7DB7EF4060598D4763F47E
:10326C00A70283474A00977602009386E6ED17770C
:10327C000200130727ED177602001306E60CB6853D
:10328C001145EF408057A38C018C97170020239D8C
:10329C0007F0130400086FF0CFF42547E38AE79694
:1032AC0019476391E702B786004023804603B7E7CE
:1032BC0000E03707400023A0E718010001001306C7
:1032CC0000FC8DB31307100A6391E702B786004028
:1032DC0023804603B7E700E03707400023A0E71838
:1032EC0001000100130680FC35BB1307A009E38F16
:1032FC00E7FC1307400AE38BE7FC13072002E38982
:10330C00E7900547E386E79093070008E302F49003
:10331C00B7E700E03707400023A0E71801000100E1
:10332C00B786004023804603130620FCE5B983C70B
:10333C00C18E130700026384E71E6367F70215470B
:10334C00638AE70E19476388E704B7860040238039
:10335C000602B7E700E03707400023A0E71801009A
:10336C0001001306A0FC7DB91307F005638AE70082
:10337C00130750096386E70013071002E397E7FC75
:10338C00B7E700E03707400023A0E7180100010071
:10339C00B786004051BF138BB18E034A0B009307C5
:1033AC000004528963F4470113090004938A818B4A
:1033BC0083A50A001374F90F228617150020130534
:1033CC00A5DE97D0FF1FE780C07083470B00818F6D
:1033DC002300FB0083A70A00A29723A0FA00630E28
:1033EC000A02B787004023802703B7E600E03706C0
:1033FC00400023A0C6180100010003C72702134791
:10340C0007042381E70203C727021377C70F238121
:10341C00E70223A0C6106FF0EF8DB7860040238023
:10342C000602B7E700E03707400023A0E7180100C9
:10343C000100DDBD378700408347370083C6118FFD
:10344C0093F70708D58FA301F700B7064000B7E73D
:10345C0000E023A0D718010001001306A0FC2301F3
:10346C00C70223A0D7106FF0EF889387C18CA69763
:10347C0083C70700CDC783C7618FD5E303C7C18E50
:10348C0093070002631DF7081146971500209385DA
:10349C00A5D1281097D0FF1FE780A06397170020B5
:1034AC00938787D003CA470003C9570003C467003A
:1034BC00EF40E0338D4763F8A7022258977602005D
:1034CC00938686C84AC252C0A28883C7918D17774B
:1034DC000200130727C7177602001306E6E8B68525
:1034EC001145EF40803183C7718F238CF18E2257A9
:1034FC009387418E2382470198C3A382270123839C
:10350C0087008547238CF18C37074000B7E700E034
:10351C0023A0E71801000100B7860040E1B3B7E72C
:10352C0000E03707400023A0E71801000100B78630
:10353C00004005BD29472381E70209472383E702A1
:10354C002385E7022387E7022389E7026FE01FFF49
:10355C0083C66700918A99E26FE0FFFF83C757002B
:10356C00918BA1C783C6618F8547639DF60223812A
:10357C00D18EA38BE18C238AE18C238FE18AA38FDC
:10358C00E18A238B018CA389018CA38E018A238E63
:10359C00018AA380018C2380018CB78700401147DE
:1035AC006FE03FFB238CF18CE9B70547D9B7854712
:1035BC00A38BF18C238AF18C238FF18AA38FF18A50
:1035CC00238B018CA389018CA38E018A238E018A03
:1035DC008280411106C6E13FB78700402380070077
:1035EC00130740FC2386E7001307C004A386E700FB
:1035FC0017170020130747BB2398E7001717002065
:10360C00130787B6239AE700171700201307C7ADD7
:10361C00239CE70017170020130707A5239EE7003C
:10362C0029472381E70209472383E7022385E70221
:10363C002387E7022389E702A3810700930600F89A
:10364C00A380D700930690022380D700FD562383D6
:10365C00D7002381E700B706400037E700E02320BE
:10366C00D71003C7170013671700A380E700B240F9
:10367C002398018E41018280411106C60D3FB78708
:10368C00004023800700130700FC2386E700314726
:10369C00A386E70017170020130707B12398E7004C
:1036AC0017170020130747AC239AE70017170020C1
:1036BC00130787A3239CE70029472381E7020947C7
:1036CC002383E7022385E702A3810700930600F812
:1036DC00A380D700930690022380D700FD56238346
:1036EC00D7002381E700B706400037E700E023202E
:1036FC00D71003C7170013671700A380E700B24069
:10370C002398018E4101828071679387418E130744
:10371C00072098C305472392E70021472383E7003E
:10372C002381018EA380018EA38C018C238C018CB0
:10373C0097170020938787927D5798C3D8C32394FB
:10374C00E700971700209387A79023A0070023A2D8
:10375C00070023940700A38E018C238E018CA38D6C
:10376C00018C238D018C2380018EA38F018C238FE0
:10377C00018C9387418C23800700A3800700238151
:10378C000700A3810700828003C7618F85476313FD
:10379C00F700DDB53DBD411122C406C603C7618FDC
:1037AC0085472E8613F4F50FAA856315F7041715B4
:1037BC0000201305659797D0FF1FE7808031238A7F
:1037CC00018CB787004023848702B7E600E03706F8
:1037DC00400023A0C6180100010003C7A7021377FD
:1037EC00C70F2385E702B2402285224423A0C610CE
:1037FC0041018280171500201305059B97D0FF1FF0
:10380C00E780202DA38B018CB78700402382870291
:10381C00B7E600E03706400023A0C61801000100FF
:10382C0003C767021377C70F2383E7026DBF01112C
:10383C0022CC26CA4AC84EC606CEAA842E841309A8
:10384C0000049389818F01E8F2406244D2444249DA
:10385C00B24905618280A2856374890093050004D6
:10386C0083C70900F5D3C2052685C1812D37AA94DB
:10387C00098CD1BF411106C6413D3937B240B7E77B
:10388C0000E03707400023A0E71041018280328519
:10389C00D041411106C683451600034806000D664B
:1038AC00A205B3E5050113980501135808419308C7
:1038BC00A6A263C80803130626A2635806037576EE
:1038CC001306C65DB295C205C18119466363B60283
:1038DC0017780200130888C38A05C2959041429656
:1038EC000286130606A56305C81023900600A94599
:1038FC0025A01D469D456361E6022146198E63F3A2
:10390C00C7003E862390C6009385C18FBA9597D089
:10391C00FF1FE780001C8145B2402E85410182804B
:10392C0009469D45E36AE6FE0D46198E63F3C70012
:10393C003E862390C60093858186C9BF05469D456A
:10394C00E36CE6FC0946198E63F3C7003E862390B0
:10395C00C600938541865DBF1D469D45E36EE6FA24
:10396C002146198E63F3C7003E862390C6009775D7
:10397C000200938565BD59BF09469D45E36EE6F887
:10398C000D46198E63F3C7003E862390C6009385BF
:10399C000186ADBF09469D45E360E6F80D46198EDC
:1039AC0063F3C7003E862390C6009385C185B9BFDB
:1039BC0031469D45E362E6F63546198E63F3C70042
:1039CC003E862390C600977502009385E5B63DBFF1
:1039DC0035469D45E362E6F43946198E63F3C7001C
:1039EC003E862390C600977502009385E5B339BFD8
:1039FC0019469D45E362E6F23386E54063F3C70062
:103A0C003E862390C60097F5FF1F938565A7FDBDE5
:103A1C0097E6FF1F9386C6734146CD4517E5FF1FFA
:103A2C001305C5736FC000558280011126CA4AC8A0
:103A3C004EC652C456C206CE22CC5AC0AA8AAE89F1
:103A4C003289B6843A8AEF30905A894763F3A702D9
:103A5C0097760200938646B0A68717770200130765
:103A6C0067AF177602001306A6AFB6850D45EF308B
:103A7C00D05803C48900137404026311040E03CBE1
:103A8C00090089476314FB0C83A7490003C707008F
:103A9C0083C71700A207D98F0D671307279063817F
:103AAC00E7084167130717F06394E70A63140A0ADF
:103ABC009307002063E2970AEF307053637FAB00EB
:103ACC00EF30F052637BAB008D462686CA851775A6
:103ADC000200130565A8EF30705B83A74190B9EB2A
:103AEC00EF30F050894763F2A70297760200938675
:103AFC00A6A6177702001307E7A517760200130690
:103B0C0026A8B6850D45EF30504FF2402285624411
:103B1C00D2444249B249224A924A024B0561828000
:103B2C0085475287A6864A86CE855685EFA0900D8E
:103B3C002A847DB79C43CDD72686CA8501458297BA
:103B4C000146A6854A85EF20F05259BF054449BF6E
:103B5C00294479B72D4469B7354459B7214475B711
:103B6C00011122CC26CA4AC84EC606CEAE84328972
:103B7C003684BA89EF30B047894763F2A70297764B
:103B8C0002009386669D177702001307A79C177691
:103B9C000200130666A0B6850D45EF3010462D4584
:103BAC006398090203C704008947631EF702DC40CF
:103BBC0003C7070083C71700A207D98F41671307F4
:103BCC0017F0639EE7004A85A285EF105059014516
:103BDC00F2406244D2444249B249056182802310CA
:103BEC0004002945F5B7231004000545D5B741114C
:103BFC0022C42A84058817050000130525E306C690
:103C0C00EFE0807505C02244B24097E6FF1F938613
:103C1C00E6674146914517E5FF1F1305E56741012E
:103C2C006FC04035B240224401454101828009C534
:103C3C0023A2A190014582804545828019E161450E
:103C4C00828009458280828041119397050122C4AC
:103C5C0006C626C2C1872E8463D8070A03C5818194
:103C6C00EF40106DAA8421CD834705001307000B8C
:103C7C00638EE7041307000D6390E70403472500E8
:103C8C00C547631BF702EF309036894763F6A702EE
:103C9C0003C8640083C7740097760200938646912C
:103CAC00177702001307078B177602001306C690CE
:103CBC00B6850D45EF3070342685EF40505B21659D
:103CCC00218DB24022449244410182800347450039
:103CDC009307F007E312F7FEEF3070318947E3FDED
:103CEC00A7FC83D78400977602009386668C17779F
:103CFC00020013072786177602001306668EB68518
:103D0C000D45EF30902F4DBF93F7150085C317E687
:103D1C00FF1F1306A65D970500209385E56C03C570
:103D2C008181EFB041611345140061BF93F78500A9
:103D3C0085C383C78181130740068146130640065D
:103D4C00994503D50191EFB061581345840095BF97
:103D5C0093F70501B1C3EF309029894763FBA702A4
:103D6C00014789460946814503D50191EFB0B1441D
:103D7C00977602009386C683AA87176702001307FB
:103D8C00677D1776020013066687B6850D45EF3002
:103D9C00D0261345040135B713F54500E30305F2AE
:103DAC0003D50191EFB0B13E0566130606C89145E7
:103DBC0003C58181EF50403A1345440019B71301F4
:103DCC0001DF2E86AA850A852326112097D0FF1F96
:103DDC00E78020D0EF30B021894763F2A7029766C5
:103DEC0002009386E67C176702001307A776177606
:103DFC00020013066682B6850D45EF301020832035
:103E0C00C120130101218280AA872E85B28591E3FE
:103E1C007DB782801387019183570700011106CE6D
:103E2C006393A7043EC62311B7002312C7002313C4
:103E3C00D7002EC4EF30B01B09472248B247637B32
:103E4C00A704F240976602009386867617670200F5
:103E5C0013074770176602001306867EB6850D455C
:103E6C0005616F309019EF309018894763F4A70201
:103E7C00F240976602009386A67317670200130739
:103E8C00676D176602001306A67DB6850D450561A4
:103E9C006F30B016F2400561828013870191835612
:103EAC00450083570700011106CE22CC6391F6041E
:103EBC001384818103450400C167F91789451CC32C
:103ECC0023AA0190EF500054034504009145EF5094
:103EDC00605385471306F100854513055030A30741
:103EEC00F100EFB0E178F240624405618280EF307E
:103EFC0010108947E3F9A7FE6244F240976602006E
:103F0C009386066B176702001307C76417660200D7
:103F1C0013060675B6850D4505616F30100E3D898B
:103F2C007D15954763E9A72E17770200130747877E
:103F3C000A053A951C41411122C4BA9706C626C2FD
:103F4C002E848287EF30B00A894763F1A72C17675C
:103F5C000200130727609766020093866665176652
:103F6C000200130626712244B2409244B6850D45D8
:103F7C0041016F30900883C7250019476397E70606
:103F8C002E85213FEF30B006894763F4A7028347A3
:103F9C006400976602009386A661176702001307F8
:103FAC00675B176602001306A66EB6850D45EF30EB
:103FBC00D004EF30D003894763F2A7029766020062
:103FCC009386065F176702001307C758176602002F
:103FDC001306466EB6850D45EF303002014522447E
:103FEC00B240924441016F2070190D476390E72253
:103FFC00EF30E07F894763FBA720176702001307A8
:10400C006755976602009386A65A17660200130638
:10401C00666A91BF03C7250095476319F71E9387FE
:10402C00019183D607004167791703D5A5006380FA
:10403C00E606EFB01116EF30807B894763F2A702DA
:10404C00976602009386C6561767020013078750BF
:10405C00176602001306C667B6850D45EF30E0798A
:10406C00EF30E078894763F2A702976602009386E7
:10407C002654176702001307E74D17660200130654
:10408C002669B6850D45EF304077054589BF03D7C6
:10409C00E500938481812390A7002391E70003D747
:1040AC00050103C50400130600642392E70003D73F
:1040BC00250189452393E700EF50000A03C504004E
:1040CC00096613060690A145EF50000903C50400CC
:1040DC000566130606C89145EF500008EF302071B5
:1040EC008947E3FFA7F60358E4008357A4009766BB
:1040FC0002009386E64B176702001307A745176665
:10410C0002001306E65EB6850D45EF30006F89BFE1
:10411C0003C725008D47631BF70EEF30406D8947B1
:10412C0063F6A70E176702001307C74297660200D3
:10413C0093860648176602001306065F2DB583C7E3
:10414C00250011476394E702EF30606A894763FFEB
:10415C00A70A176702001307E73F976602009386CA
:10416C002645176602001306665EF5BB1947639C6D
:10417C00E7022E851D33EF3080678947E3F0A7E611
:10418C008347640097660200938686421767020095
:10419C001307473C176602001306864FB6850D457C
:1041AC00EF30A06525BD15476397E70283C715005F
:1041BC00C1FFEF30C063894763FAA7041767020099
:1041CC0013074739976602009386863E17660200EE
:1041DC001306465A49BBEF308061894763F8A70242
:1041EC00834724002244B24092449766020093868F
:1041FC00263C176702001307E73517660200130603
:10420C00A658B6850D4541016F30205FB24022445F
:10421C009244410182808280130101DE1705000067
:10422C001305C5A2232E1120232C81202328212104
:10423C00232A9120EF50C05913898181B7F50700CB
:10424C002300A90081463000E105194597C0FF1FE6
:10425C00E7802049EF30A0590944637FA400EF3078
:10426C000059637BA4008D4619462C00176502008B
:10427C0013050534EF3080618347D10017E4FF1F2D
:10428C00130404098544A304F4008347C1001306F6
:10429C00510085452305F4008347B10013055030C8
:1042AC00A3029100A305F4008347A1002306F400A8
:1042BC0083479100A306F400834781002307F40091
:1042CC0099472313F100930740062318F100EFB030
:1042DC00213A17E6FF1F1306E604BD45130570309F
:1042EC00EFB001392286C54513056030EFB0413877
:1042FC0013066100894513051031EFB061371008C2
:10430C00894513052031EFB0A136930500050D4505
:10431C00EF70002A930500051145EF706029854563
:10432C007945EF70E0281008914513057040A30102
:10433C00910023029100A302910002C82303010003
:10434C00EF90317C13063100854513050040EF904A
:10435C00517B5000854513051040EF90917A130660
:10436C006100854513052040EF90B179130651008B
:10437C00854513055040EF90D1787D55EF90305D19
:10438C007D55EFB0F046EFF0AFE87D55EFF03F868E
:10439C0017E6FF1F130646F6D5450145EF90D049A9
:1043AC001306C01F8145480826C8EFD0BFE6100889
:1043BC0081450145EFF09F88C167F917138541814D
:1043CC0023A8F19023AA0190EFF07F8613858190AA
:1043DC00EF80B151034509008545EF40D03783206C
:1043EC00C1210324812183244121032901211301AB
:1043FC000122828001111305F5FB06CE22CC137528
:10440C00F50FD14763E0A72A176702001307875AF5
:10441C000A053A951C412E84BA978287EF30203DCD
:10442C00894763F2A702976602009386E6381767FE
:10443C000200130727121766020013066638B685AA
:10444C000D45EF30803B854522856244F240056185
:10445C006F308055EF30A039894763F2A702976619
:10446C00020093866635176702001307A70E1766BE
:10447C00020013062637B6850D45EF30003881450E
:10448C002285EF3060526C002285EF30C02705C9C1
:10449C00EF30E0350DC1976602009386E631176761
:1044AC000200130767361766020013062636B68518
:1044BC000545EF308034F240624405618280EF3074
:1044CC000033894763F3A702B247976602009386CD
:1044DC00A62E176702001307E707176602001306DC
:1044EC002635B6850D45EF30403132459385C18A6E
:1044FC00EF30202BC9B7EF30802F894763F2A7022A
:10450C00976602009386462B1767020013078704F1
:10451C001766020013060634B6850D45EF30E02D04
:10452C0089451DB7EF30A02C894763F2A7021767A6
:10453C00020013072702976602009386E627176688
:10454C00020013066633B6850D45EF30002B22852D
:10455C00EF3000141DE52285EF20701729DDEF30B8
:10456C00002931D9176702001307072A9766020042
:10457C00938686241766020013060632B685054517
:10458C0029AA85476318F5022285EF20B065E3045C
:10459C0005F2EF30C025E30005F2176702001307A0
:1045AC00A72697660200938626211766020013063B
:1045BC00E630E9B7EF30A023E30F05EE17670200F2
:1045CC0013078724976602009386061F176602005E
:1045DC001306063165B7EF308021894763F2A702D5
:1045EC0017670200130707F7976602009386C61C2D
:1045FC001766020013068630B6850D45EF30E01FB6
:10460C002285EF20B055E30805EAEF30401EE304A5
:10461C0005EA176702001307271F976602009386A7
:10462C00A619176602001306662F89BFEF30201CEF
:10463C008947E3F7A7FC176702001307A7F19766F2
:10464C00020093866617176602001306662F6DB775
:10465C00EF30E0198947E3FCA7EE17670200130758
:10466C0067EF9766020093862615176602001306FD
:10467C00262FD1BDEF30A0178947E3FEA7E297663E
:10468C00020093866613176702001307A7EC1766E0
:10469C0002001306E62EB6850D456244F240056114
:1046AC006F30A015EF30A014E30705E01767020088
:1046BC00130787159766020093860610176602008B
:1046CC001306C62D65BD4111930735FB06C622C4E2
:1046DC0026C293F7F70F19476363F71817670200A1
:1046EC001307873C8A07BA979C43AE843284BA97E7
:1046FC008287EF30C00F894763F3A70297660200E9
:10470C009386860BA287176702001307A7E4176628
:10471C0002001306662FB6850D45EF30000EA285FC
:10472C002244B2402685924441016F3000352E85DB
:10473C00EF20107629E1EF30800B894763F3A70255
:10474C009766020093864607A28717670200130735
:10475C0067E0176602001306262DB6850D45EF306F
:10476C00C009931504012244B24026859244C181AC
:10477C0041016F20007D85476310F504EF30200761
:10478C00894763F3A702976602009386E602A28725
:10479C0017670200130707DC176602001306C62A08
:1047AC00B6850D45EF306005A2852244B2402685C2
:1047BC00924441016F201061EF30600369C11767AB
:1047CC00020013076704976602009386E6FE1766DD
:1047DC0002001306E6102244B2409244B685054509
:1047EC0041016F308001EF308000894763F3A702ED
:1047FC0097660200938646FCA28717670200130790
:10480C0067D51766020013062626B6850D45EF20E0
:10481C00D07EA2852244B2402685924441016F206D
:10482C00F04DEF20D07C894763F3A7029766020016
:10483C00938686F8A287176702001307A7D117661D
:10484C00020013066624B6850D45EF20107BA28569
:10485C002244B2402685924441016F205050EF20F3
:10486C00107911CD17670200130707FA976602003B
:10487C00938686F41766020013064612A9BFB2404F
:10488C002244924441018280232006007D5763829A
:10489C00E512011122CCAA8706CE130790042E85AF
:1048AC0032846385E70413075005638AE70A13070C
:1048BC001004639EE70C6C00EF20F06425C5EF201C
:1048CC0010730DC197660200938606EF17670200FE
:1048DC00130787F317660200130646F3B6850545E2
:1048EC00EF20B071F240624405618280EF30C0224B
:1048FC0008C0EF20D06F8947E3F6A7FE1C40624446
:10490C00F24097660200938626EB176702001307A6
:10491C0067C4176602001306E61AB6850D450561D5
:10492C006F20B06D3245A285EF20106AEF20306CFD
:10493C008947E3F9A7FA03280400B24797660200F7
:10494C00938686E7176702001307C7C01766020035
:10495C0013064619B6850D45EF20306A61B7EF2076
:10496C0010698947E3F0A7F8976602009386C6E4BE
:10497C0017670200130707BE1766020013064600EE
:10498C00B6850D456244F24005616F201067EF203B
:10499C00106629D997660200938606E21767020013
:1049AC00130787E617660200130646FFB685054512
:1049BC00D1BF8280411106C622C4EF2050638947C3
:1049CC0063F2A70297660200938606DF1767020060
:1049DC00130747B8176602001306C613B6850D45B4
:1049EC00EF20B061170400201304C4250345840094
:1049FC00A145EFF03FA0034594009945EFF09F9F30
:104A0C000345A4009D45EFF0FF9E0345C400C1453E
:104A1C00EFF05F9E0345D400A545EFF0BF9D034525
:104A2C00A401D145EFF01F9D0345B401DD45EFF026
:104A3C007F9C0345C40193057002EFF0BF9B0345B7
:104A4C00D401D945EFF01F9B03452402A945EFF093
:104A5C007F9A034534022244B240AD4541016FF0C8
:104A6C007F9979714AD0138901948327090026D242
:104A7C004ECE52CC56CA06D622D45AC88907232009
:104A8C00F900970400209384E41B9309D007930A40
:104A9C00D002176A0200130A2A3603270900B386CC
:104AAC00E40083C7060063873707090783C616002F
:104ABC002320E900269703440700FD17A20693F76D
:104ACC00F70F558C63E3FA048A07D2979C43D2976D
:104ADC008287EF20D051894763F3A70297660200C3
:104AEC00938686CDA287176702001307A7A61766C1
:104AFC0002001306E603B6850D45EF20105003C5E2
:104B0C0084002286A145EFF01FBC8327090085078E
:104B1C002320F90083270900A69783C70700E39E8B
:104B2C0037F7B250225492540259F249624AD24A8F
:104B3C00424B45618280EF20904B894763F3A7027B
:104B4C0097660200938646C7A28717670200130771
:104B5C0067A0176602001306E6FFB6850D45EF2029
:104B6C00D04903C594002286994571BFEF20304887
:104B7C00894763F3A702976602009386E6C3A28770
:104B8C00176702001307079D176602001306C6FE7F
:104B9C00B6850D45EF20704603C5A40022869D45C1
:104BAC009DB7EF20D0448947E3F1A7F6A28717679A
:104BBC0002001307279A976602009386E6BF1766D2
:104BCC0002001306A6FDB6850D45EF20104335BF38
:104BDC00EF20F041894763F3A702976602009386A2
:104BEC00A6BDA287176702001307C79617660200B7
:104BFC00130606FDB6850D45EF20304003C5C400F5
:104C0C002286C14509B7EF20903E894763F3A7027E
:104C1C0097660200938646BAA287176702001307AD
:104C2C006793176602001306E6FBB6850D45EF2069
:104C3C00D03C03C5D4002286A545F1B5EF20303B0E
:104C4C008947E3F4A7ECA287176702001307879044
:104C5C0097660200938646B6176602001306C6FADC
:104C6C009DB7EF20D0388947E3F1A7EAA2871767F1
:104C7C0002001307278E976602009386E6B3176629
:104C8C0002001306A6FA81B7EF2070368947E3FEBF
:104C9C00A7E6A287176702001307C78B9766020067
:104CAC00938686B117660200130686FA29BFEF2099
:104CBC0010348947E3FBA7E4A287176702001307A8
:104CCC00678997660200938626AF17660200130663
:104CDC0066FAD5BDEF20B0318947E3F8A7E2A28789
:104CEC001767020013070787976602009386C6AC06
:104CFC0017660200130646FAF9B5EF20502F8947C4
:104D0C00E3F5A7E0A287176702001307A78497664D
:104D1C000200938666AA17660200130626FA65B58A
:104D2C00EF20F02C894763F3A70297660200938665
:104D3C00A6A8A287176702001307C781176602008F
:104D4C00130606FAB6850D45EF20302B03C5A401DA
:104D5C002286D1454DBBEF209029894763F3A702EA
:104D6C0097660200938646A5A28717570200130781
:104D7C00677E176602001306E6F8B6850D45EF2030
:104D8C00D02703C5B4012286DD45B5BBEF20302604
:104D9C00894763F3A702976602009386E6A1A28770
:104DAC00175702001307077B176602001306C6F796
:104DBC00B6850D45EF20702403C5C40122869305EA
:104DCC00700291B3EF20B022894763F3A702976674
:104DDC0002009386669EA2871757020013078777F7
:104DEC0017660200130686F6B6850D45EF20F020F7
:104DFC0003C5D4012286D94539B3EF20501F89470A
:104E0C0063F3A702976602009386069BA287175747
:104E1C0002001307277417660200130666F5B685A1
:104E2C000D45EF20901D03C524022286A945E1B94A
:104E3C00EF20F01B894763F3A70297660200938665
:104E4C00A697A287175702001307C77017660200B0
:104E5C00130606F2B6850D45EF20301A03C5340251
:104E6C002286AD454DB185476311F4041387C1917A
:104E7C00834707009306F00F6385D700850723004F
:104E8C00F700EF20D0168947E3F1A7C883C7C1917B
:104E9C00175702001307076C976602009386C6919A
:104EAC0017660200130646EF39BB61FC1387C191EC
:104EBC0083470700F9D7FD17D9B785476311F40469
:104ECC001387B191834707009306F00F6385D700D2
:104EDC0085072300F700EF2090118947E3F7A7C25D
:104EEC0083C7B191175702001307C7669766020074
:104EFC009386868C17660200130686EBE9B161FC7B
:104F0C001387B19183470700F9D7FD17D9B7138BD6
:104F1C00A19123008B00EF20900D8947E3F7A7BEEA
:104F2C0083470B00175702001307C76297660200EE
:104F3C009386868817660200130606E969B1138BFF
:104F4C00919123008B00EF20900A8947E3FFA7BAC9
:104F5C0083470B00175702001307C75F97660200C1
:104F6C009386868517660200130686E7A9B99357C0
:104F7C0084409DCB05476397E70083C7C191238687
:104F8C00F19261B609476395E70083C7B191C5BF3C
:104F9C000D476395E70083C7A191D5B71147E396F9
:104FAC00E7B683C79191E1BF23868192B9BE93572F
:104FBC0084409DCB05476397E70083C7C191A385C8
:104FCC00F192A1B609476395E70083C7B191C5BFBC
:104FDC000D476395E70083C7A191D5B71147E396B9
:104FEC00E7B283C79191E1BFA385819239BE9357F4
:104FFC0084409DCB05476397E70083C7C191238508
:10500C00F19221B609476395E70083C7B191C5BFFB
:10501C000D476395E70083C7A191D5B71147E39678
:10502C00E7AE83C79191E1BF23858192F9BC935779
:10503C0084409DCB05476397E70083C7C191A38448
:10504C00F192E1B409476395E70083C7B191C5BFFD
:10505C000D476395E70083C7A191D5B71147E39638
:10506C00E7AA83C79191E1BFA384819279BC93573E
:10507C0084409DCB05476397E70083C7C191238488
:10508C00F19261B409476395E70083C7B191C5BF3D
:10509C000D476395E70083C7A191D5B71147E396F8
:1050AC00E7A683C79191E1BF23848192B9BCB7175E
:1050BC0055539387D7A0138B41933EC483470B0062
:1050CC009D4528002306F100B547A306F100A9472A
:1050DC002307F100EFE0AFF523008B003DB47971AD
:1050EC0006D622D426D24AD04ECE52CC56CAEF2067
:1050FC000070894763F2A702975602009386C66B2D
:10510C00175702001307074517660200130646DA05
:10511C00B6850D45EF20606E938A019483A70A0033
:10512C0017090020130909B202C63307F9009507C5
:10513C00034A1700834927008344370023A0FA0051
:10514C0003474700CA9703C407002207598CEF2076
:10515C00006A894763F3A702975602009386C665D7
:10516C00A287175702001307E73E176602001306C3
:10517C0066D6B6850D45EF20406883A70A00130755
:10518C006003850723A0FA00CA9783CA0700938798
:10519C00F4FF93F7F70F6367F70417670200130721
:1051AC0027F98A07BA979C43BA97828703458900E7
:1051BC007000A145EFF04FEDEF206063894763F37A
:1051CC00A702B247175702001307C73897560200B9
:1051DC009386865E176602001306C6D1B6850D450A
:1051EC00EF20A061EF20A060894763F3A702B247CC
:1051FC00975602009386465C1757020013078735B3
:10520C0017660200130646EDB6850D45EF20E05EED
:10521C009307D003638BFA3263E157319307100283
:10522C006388FA389307C003638DFA300145B25096
:10523C00225492540259F249624AD24A4561828000
:10524C000345990070009945EFF00FE4EF20205AC8
:10525C008947E3F9A7F8B247175702001307872FBE
:10526C00975602009386465517660200130686CAA7
:10527C00B5B70345A90070009D45EFF0EFE0EF20B6
:10528C0000578947E3F0A7F6B247175702001307F8
:10529C00672C975602009386265217660200130657
:1052AC0066C92DBF02C6EF2080548947E3FCA7F2E4
:1052BC00B247175702001307E72997560200938647
:1052CC00A64F176602001306E6C809BF0345C900BE
:1052DC007000C145EFF04FDBEF2060518947E3F3DD
:1052EC00A7F0B247175702001307C72697560200BC
:1052FC009386864C176602001306C6C7C5B50345D0
:10530C00D9007000A545EFF02FD8EF20404E89470B
:10531C00E3FAA7ECB247175702001307A7239756D7
:10532C00020093866649176602001306A6C67DB571
:10533C0002C6EF20C04B8947E3F6A7EAB2471757DE
:10534C00020013072721975602009386E64617663C
:10535C000200130626C659B502C6EF2040498947FC
:10536C00E3F2A7E8B247175702001307A71E975698
:10537C00020093866644176602001306A6C5B9BDE3
:10538C0002C6EF20C0468947E3FEA7E4B247175791
:10539C0002001307271C975602009386E6411766F6
:1053AC000200130626C51DBD02C6EF2040448947E6
:1053BC00E3FAA7E2B247175702001307A71997564B
:1053CC0002009386663F176602001306A6C439B521
:1053DC0002C6EF20C0418947E3F6A7E0B247175752
:1053EC00020013072717975602009386E63C1766B0
:1053FC000200130626C4DDB302C6EF20403F8947E6
:10540C00E3F2A7DEB247175702001307A71497560B
:10541C0002009386663A176602001306A6C37DBB8C
:10542C0083C7C1913EC6EF20803C8947E3FCA7DAD5
:10543C00B247175702001307E711975602009386DD
:10544C00A637176602001306E6C249BBEF20203AC6
:10545C0089479384B19163F4A70283C704009756DC
:10546C00020093866635175702001307A70E1766BE
:10547C0002001306E6C1B6850D45EF20003883C740
:10548C0004003EC685B3EF208036894763F2A7023D
:10549C009756020093864632175702001307870B64
:1054AC0017660200130646C0B6850D45EF20E034A2
:1054BC0083C7A191F9B783C79191E1B783D70192C3
:1054CC00C9B783D7E19175BF83C751935DBF83C7BC
:1054DC00719245BF83C761926DB783C7519255B71F
:1054EC0083C7419279BF83C7319261BF02C6EF2057
:1054FC0000308947E3F8A7CEB247175702001307CD
:10550C006705975602009386262B17660200130632
:10551C00E6BAE9B183C72192ADB79307E003638084
:10552C00FA069307F003E393FAD0220AB3E9490190
:10553C00B247014563D38908E3DBF9CE33A5870075
:10554C00FDB1324533258500DDB1EF20402A894776
:10555C0063F2A7029756020093860626175702009D
:10556C00130747FF17660200130606B9B6850D45EB
:10557C00EF20A0283245018D133515004DB9EF20D1
:10558C000027894763F2A702975602009386C6222A
:10559C0017570200130707FC17660200130646B7DD
:1055AC00B6850D45EF20602532453325A40041B169
:1055BC003245018D3335A0009DB9E3DA37C7332569
:1055CC00F400B5B1411106C622C4EF204022894730
:1055DC0063F2A702975602009386061E1757020025
:1055EC00130747F717660200130646C2B6850D452A
:1055FC00EF20A020138601941C4217F7FF1F1307FE
:10560C00676493854700BA9703C4170083C62700C5
:10561C002E970347070083C73700C2066204558CD8
:10562C00A207598C5D8C0CC2EF20601C894763F378
:10563C00A7029756020093862618A28717570200D6
:10564C00130747F117660200130606BEB6850D4513
:10565C00EF20A01AB24022852244410182804111E0
:10566C0006C6EF20C018894763F2A70297560200BE
:10567C0093868614175702001307C7ED17660200AE
:10568C00130606BCB6850D45EF202017B24003C5A6
:10569C0081949305000841016F30D05601112EC63C
:1056AC00856522CC938505802A84414506CEEFC0C2
:1056BC00DFC0A28562443246F240414505616FC0AD
:1056CC00DFBE05661306068097F5FF1F9385855789
:1056DC0041456FC09FBC797122D426D24AD04ECEA0
:1056EC0052CC06D6AA84AE8932843689094AEF2078
:1056FC000010637FAA00EF20800F637BAA008D4609
:10570C004E86A685175502001305050BEF200018D1
:10571C009389819183C709008DEF03C52400A145AE
:10572C00EFE05FCD03C534009945EFE0BFCC03C576
:10573C0044009D45EFE01FCC03C55400A945EFE0A4
:10574C007FCB03C56400AD45EFE0DFCA85472380FE
:10575C00F900930700052300F40093071004A3003D
:10576C00F40003C524007000A14502C6EFF0CF91F0
:10577C00B247700099452301F400A187A301F400FE
:10578C0003C53400EFF04F90B24770009D452302E3
:10579C00F400A187A302F40003C54400EFF0CF8E00
:1057AC00B2477000A9452303F400A187A303F400BA
:1057BC0003C54400EFF04F8DB2477000AD45230494
:1057CC00F400A187A304F40003C544008944EFF05E
:1057DC00AF8BB2472305F400A187A305F400930710
:1057EC0050042306F40093072005A306F400B947E0
:1057FC002310F900EF10B07F63F0A402EF10307F9C
:10580C0063FCA400035609008D46A28517550200BF
:10581C00130585FAEF208007B25022549254025996
:10582C00F249624A45618280411106C622C4EF10DA
:10583C00107C894763F2A702975602009386C6F73D
:10584C0017570200130707D117660200130646A16B
:10585C00B6850D45EF10707AAD3597F7FF1F93871E
:10586C00673E83C6070013072005639EE60A83C6BE
:10587C001700130740056398E60A83C62700130731
:10588C0050036392E60A83C6370013071003639C28
:10589C00E608014713064005930540041305E00490
:1058AC0013085004930830051303200583C6F7FF33
:1058BC00639CC60483C6E7FF6392160783C6D7FFB3
:1058CC00639E66041384C19318C0EF10507289470D
:1058DC0063F3A7021C40975602009386E6ED175718
:1058EC000200130727C71766020013066699B685D0
:1058FC000D45EF1090702244B24003C5819441468F
:10590C00854541016F305005639AB60083C6E7FFA9
:10591C006396A60083C6D7FFE38606FB05079306AE
:10592C0007808507C1F6EF10906C894763F5A702D5
:10593C002244B24097560200938606E8175702009D
:10594C00130747C11766020013060696B6850D4568
:10595C0041016F10906AB240224441018280411192
:10596C0026C293840193904022C42E8497F5FF1F86
:10597C00938545AD06C697B0FF1FE78080159C4008
:10598C00B24092441CC022444101828023A2019463
:10599C0023A0019423900192239F0190238E0190C8
:1059AC00A38D0190238A0192A38A0192238D0190E9
:1059BC00A38C019023860192A385019223850192E9
:1059CC00A384019223840192A383019223830192E5
:1059DC00A382019223820192A381019223810192DD
:1059EC00238C01908280011122CC4AC84EC606CE6F
:1059FC0026CA17640200130424C117690200130994
:105A0C0069C5FD590440638834012685EF10206474
:105A1C002685EF10005C1104E31624FF89455145DF
:105A2C00EF10907881455145EF20200589455D4563
:105A3C00EF10907781455D45EF20200489451305D3
:105A4C007002EF107076814513057002EF20E002B2
:105A5C0089455945EF10507581455945EF20E001B6
:105A6C0089452145EF10507481452145EF20E00018
:105A7C0089451945EF10507381451945EF10F07F9A
:105A8C0089451D45EF10507281451D45EF10F07E84
:105A9C0089457D55EF10507181457D55EF10F07D96
:105AAC0089454145EF10507081454145EF10F07C20
:105ABC0089452545EF10506F81452545EF10F07B4A
:105ACC0089457D55EF10506E81457D55EF10F07A6C
