:040000006F20C01598
:1000040000000000000000009000002028050020EF
:10001400A9BDF9F5E0050020000000000000000083
:10002400E005002090000020000000000000000017
:10003400900000200000000090000020000000005C
:1000440090000020E2020020F60200209000002030
:1000540090000020540A0020A400002000000000AA
:1000640090000020900000209000002090000020CC
:10007400CC0200209000002090000020900000207E
:1000840090000020900000209000002090000020AC
:1000940001A0411106C6EF005056972000E0E7800A
:1000A4006041D5BFB787004003C76700098B630170
:1000B4000720411122C626C403C777009306000314
:1000C400137707036303D7089384118D03C50400D2
:1000D4001384418C0548B306A4002380060103C69B
:1000E40077001387818C2A971376F60F2300C700B5
:1000F40083C587001386C18C2A9693F5F50F2300D8
:10010400B60003470700130600021377F7036307DB
:10011400C718636EE6086305071109466300C70C38
:10012400630D071483C704003E940347040009CBFE
:10013400850793F7F70F0D476369F7162380F400DB
:10014400B787004009472383E700B787004083C788
:100154007700E207E18763D707049386118D83C78D
:1001640006001387418C05463E972300C70013877A
:10017400818C3E97130600032300C7001387C18CAC
:100184003E97214685072300C70093F7F70F0D47D5
:100194006373F70081472380F6000947B78700405F
:1001A4002383E7003244A2444101730020309306C4
:1001B40010026305D70A93062002E315D7F603C796
:1001C400A702134707042385E70203C7A70213778F
:1001D400C70F136727002385E702A9B703C7670082
:1001E400137707044DCB03C7A702130600049745F2
:1001F4000000938525F0134707082385E70203C70A
:10020400A70217450000130565DD1377370F136741
:1002140087002385E702972000E0E78040FF19B7B5
:1002240003C76700137707043DC703C767021306B4
:100234000004974500009385E5F3134707082383DB
:10024400E70203C7670217450000130525DD13778E
:10025400370F136787002383E70275BF03C767025D
:10026400134707042383E70203C767021377C70F03
:10027400136727002383E70275B503C76700137765
:10028400070411CB03C727021377370F13678700BF
:100294002381E70241BD2380060069B503C7270215
:1002A4001377C70F13672700E5B7A388018C49BDEF
:1002B400730020304111B7170040985F3AC6945F2D
:1002C4003247E39CE6FE324541018280B717004085
:1002D400130700032388E702854723AAF1947300D8
:1002E4002030371700408357C709C207C183231E34
:1002F400F70873002030371700408357E709835706
:10030400E709C207C18393F7F7CFC207C183231F4D
:10031400F708730020304111B7170040985F3AC6C0
:10032400945F3247E39CE6FE32454101828001112D
:1003340013078008F337078093F787083EC201004C
:100344000100B7170040930570052380B704130616
:1003540080FA2380C7040100010083C6B70493F622
:10036400F60DA385D704238007049246F3A60680DE
:100374000100010093760502D5CEF336078093F68B
:10038400860836C4010001002380B7042380C70413
:1003940001000100B70614007D89558D88C701004E
:1003A40001000100010023800704A246F3A6068091
:1003B4000100010073370780137787083AC60100EC
:1003C40001002380B7042380C70401000100010059
:1003D40001003727004093061005A303D78023802C
:1003E4000704B247F3A707800100010093078008C0
:1003F400F3B7078093F787083ECE01000100B717D3
:100404000040130770052380E704130780FA238054
:10041400E7040100010003C7B70413670708A385B5
:10042400E70423800704F247F3A7078001000100D3
:100434000561828093760504BDC6F336078093F682
:10044400860836C8010001002380B7042380C7044E
:1004540001000100B7061400938606047D89558DBA
:1004640088C7010001000100010023800704C2467F
:10047400F3A606800100010073370780137787080D
:100484003ACA010001002380B7042380C704010095
:1004940001003727004093062005A303D78023805B
:1004A4000704D24781B773370780137787083ACC9C
:1004B400010001002380B7042380C7040100010068
:1004C40098471367070C98C723800704E24719BFAE
:1004D4000111814601468145114506CE3924930711
:1004E4008008F3B7078093F787083EC60100010030
:1004F400B7170040130770052380E704130780FA39
:100504002380E7040100010003C767041367170091
:100514002383E70423800704B247F3A7078001007D
:100524000100F24005618280411181460146814506
:100534001145652A13078008F337078093F7870866
:100544003EC401000100B717004013067005238064
:10055400C704930680FA2380D70401000100FD55E7
:100564002396B70223800704A245F3A50580010062
:10057400010073370780137787083AC6010001002A
:100584002380C7042380D7040100010003C7670444
:10059400136717002383E70423800704B247F3A7F4
:1005A40007800100010001A0BD473305F5020100E9
:1005B4007D1575FD8280411122C426C206C6AA8417
:1005C400014463179400B240224492444101828062
:1005D40005041305803E4204C13F4180DDB700009D
:1005E4009305000273A045808245739015349240B0
:1005F4002242B2424243D2436244F24402559255EB
:100604002256B2564257D2576258F2580649964972
:10061400264AB64A464BD64B664CF64C065D965D6A
:10062400265EB65E465FD65F096173002030230301
:10063400048015472303E48001002302A480828000
:1006440083076480E3CE07FE23030480828083074C
:100654006480E3CE07FE0345448082808307648080
:10066400E3CE07FE2302A4808280411126C44AC23D
:100674004EC006C61377F50BAD47AA892E8995445B
:100684006306F70019456537653F8D444E85453748
:10069400FD59FD1463983401B240A24412498249C1
:1006A40041018280135509011375F50F453F220955
:1006B400CDB7011126CC06CEB70408005137154535
:1006C400BD37713769372AC6A53F32459377150080
:1006D40089EB136515001375F50FF240E2440561CB
:1006E4008280FD14E9FC0145CDBF397126DC4ADA6C
:1006F4004ED852D656D45AD25ED006DE62CE66CCDE
:10070400B7E700E07D5783AA070022C603AA470083
:1007140023A0E71823A2E718B717004013077005B2
:100724002380E704130780FA2380E70483C7470480
:10073400930B75FFB684E20793FBFB0F8546AA89EA
:100744002E8B328937240040E187015763FA760102
:100754006308D5008946130700026313D5000157C7
:10076400D98F93F7F70FB71C00402382FC0411477D
:100774002303E4801305F00F5D3D094CD135636D0F
:100784007C11B7050700DA9537870700795563F2BE
:10079400E504B3879500636EF702370B0800A94799
:1007A40033EB65016399F90689E48144513D26855B
:1007B4000DA0DA850945553D05090345F9FFFD14EA
:1007C400050B693D81C49377FB0FFDF7DD3569FDAA
:1007D4007D55B7170040130770052380E7041307FE
:1007E40080FA2380E70403C74704418B2382E7048C
:1007F400F250B7E700E023A0571123A24711E254B7
:1008040032445259C259325AA25A125B825B724C18
:10081400E24C21618280A5476395F9068569130935
:10082400F00FB3069900B3742B01B6941349F9FF82
:10083400B3749900856B33796901416B9387F9FF30
:10084400B3F7270199E363FC340193D94900C14705
:10085400E3E637FF99BF0569C1697D19D9B7130567
:10086400800D63886901130500026384790113050F
:100874001008CA85DD3B353D21DD4E99B3843441F2
:10088400D9B7DA852D45D533CA94E30099F2050921
:100894007D3BA30FA9FED5BF9387F9FF93F7F70F0D
:1008A4006361FC0C83C71C0413073008631FF7043F
:1008B40037070800636BEB04B3079B00B70610000F
:1008C40063F5D704334BEB0089476393F9068980BA
:1008D400D549E38C04ECDA850945413B110903272A
:1008E400C9FF91472320E48003076480E34E07FE99
:1008F40023033481FD17EDFBFD14110B81C49377A1
:10090400FB0FE9FF7D3371F5E1B5B717004003C76D
:100914005704B70708001377070219E3B7870700DE
:100924007955E378FBEA33079B00E3FFE7F855B515
:100934008547E382F9F2DA852D45053B9389F4FF77
:10094400E38504E6293393F7390091EB8326048089
:100954000327090093074900E39AE6E43E89CE841D
:10096400F1BFB5476396F9001305900BC93135BD46
:10097400B1471305B00AE38BF9FE99476391F90473
:10098400B7050800B365BB002D45C53181448D4BC7
:10099400A149753963967401832704802320F900E3
:1009A4008504E39834FF8327048013172B016355D0
:1009B40007002312F900D5BB2322F900FDB39D479C
:1009C4006399F90281451305B0044531BD442320E0
:1009D400090023220900FD599D3993F77400CA9731
:1009E40003C70700FD14398D2380A700E39634FF65
:1009F4006DBBA1476392F9046D398144630D0B000B
:100A04008D479304C0036308FB009304000563044B
:100A14008B01930440041375C507E30895D8194561
:100A2400393139390545213126850D3909453D319D
:100A34004931E31C05D669BB91476399F900130555
:100A44006006F536F53E130590090DB7E38F09D41A
:100A5400F154A9BB197106C212C416C61AC81ECA1B
:100A640022CC26CE2AD02ED232D436D63AD83EDA6A
:100A740042DC46DECAC0CEC2D2C4D6C6DAC8DECA9A
:100A8400E2CCE6CEEAD0EED2F2D4F6D6FAD8FEDA4A
:100A94009385C1948841E700050092402242B24206
:100AA4004243D2436244F244025592552256B2560E
:100AB4004257D2576258F25806499649264AB64ACE
:100AC400464BD64B664CF64C065D965D265EB65E8E
:100AD400465FD65F096173002030B7E700E09843B2
:100AE400B706200023A0D718758F0F10000001C58A
:100AF40099C1814711E6B7E700E023A0E71082809F
:100B0400B386F50003C80600B306F5008507238005
:100B14000601E317F6FEC5B737E700E01C43B70646
:100B240020002320D718F58F0F10000019C191C1A0
:100B340011E637E700E02320F7108280910503A730
:100B4400C5FF11057D16232EE5FEDDB737E700E06E
:100B54001C43B70620002320D718F58F0F10000080
:100B640001C53307C50011E637E700E02320F7107D
:100B740082800505A30FB5FEE31DE5FEF5B7B7E7D3
:100B840000E09843B706200023A0D718758F0F10F4
:100B940000008147B306F5008386060099E6B7E6B0
:100BA40000E023A0E6103E8582808507E5B737E79D
:100BB40000E01C43B70620002320D718F58F0F1040
:100BC400000001C599C1014711EA37E700E023207D
:100BD400F710054582800507E309E6FE3308E500C2
:100BE400B386E5000348080083C60600E305D8FE83
:100BF40037E700E02320F7100145828037E700E063
:100C04001C43B70620002320D718F58F0F100000CF
:100C14001307F6FFBA952A966317C50037E700E075
:100C24002320F7108280FD1503C715000505A30FC7
:100C3400E5FEDDB737E700E01C43B70620002320BC
:100C4400D718F58F0F10000001C53307C50019E64A
:100C540037E700E02320F71001458280050583462D
:100C6400F5FFE397B6FEE31BE5FE37E700E023203C
:100C7400F71005458280797197570000938787079D
:100C840022D4804306D626D24AD04ECE52CC56CA5F
:100C94005AC85EC679C0B7C4C901014B9759000050
:100CA4009389C9049384F437175A0000130ACA04B9
:100CB400975A0000938ACAFE17590000130989083D
:100CC4008357240095E35C44631D0B001757000011
:100CD4002322F702832BC4002285EF00F01E5E84DA
:100CE400B9A82326FB00FDB783A7090082971C44FB
:100CF4003307F5406376F500032749001D8F2A97D3
:100D040063E2E4089757000023A407FA83552400FC
:100D140003450400978000E0E780E0ED5C40584420
:100D2400A1CB0C4403264900AE97BE8663E4B7000A
:100D340063E4C700B386C74014C4228B3A8449F0E5
:100D4400975700009387C7F59C4B09476372F706D2
:100D5400F91717570000232DF7F4B2502254925478
:100D64000259F249624AD24A424BB24B45618280EF
:100D740063170B009757000023AEE7F6A1BF2326A5
:100D8400EB0089BF03274A0209CF63EFA70033852D
:100D9400A74083A70A016376F5009757000023A9AB
:100DA400A7F0228B404461BF03274900BA97C5B717
:100DB4009757000023AE07EE4DB79757000093876F
:100DC400E7F79C4385C3411106C6829797570000F5
:100DD40083C7A7F189E79757000023A107F6B2401C
:100DE400410182809757000083C727F091E7975706
:100DF400000023A507F482808280411122C4175485
:100E040000001304A4EC1C4006C626C24AC091C7C5
:100E140082979757000023AB07EA9757000083C7D0
:100E2400B70B858B175900001309C90A89CF83476B
:100E3400790019476312F71097570000A38E07082B
:100E440031235C4482971C4491C3829797540000D9
:100E5400938404EA984017560000034676E49757B3
:100E6400000083C7E7E393961700BA9683D606007B
:100E7400E5C29757000083C7A7E263E5C70E9757FB
:100E84000000238F07E01C40639E0714975700005F
:100E94009387C7E59C43638707149757000093879C
:100EA40067EADC43175700002324F7E0E933975738
:100EB400000083C7D702639707129757000083C7C0
:100EC400F70191CF8347790093F7F70F89EB975791
:100ED4000000A3850700978001E0E78080D497573E
:100EE4000000938767E1DC53638E070E9757000079
:100EF400938707DB9C4BFDC78347790015476363E2
:100F0400F70E9757000083C76702918BE1EF97575D
:100F1400000083C787DDF9E790409756000083C639
:100F240036D863C7D70C2244B240924402494101E7
:100F3400178300E06700C32E834779001D47E3143D
:100F4400F7F097570000A38907F809211C48DDBD75
:100F5400850793F7F70F975600002383F6D4E3E051
:100F6400C7F001BF86073E9783550700231007008B
:100F740097570000239A07D6975700009387C7D442
:100F84009C43175500000345A5D113172500BA97B4
:100F94009C4382979757000083D707D517570000C3
:100FA400034707D093C7F7FF7D8D93171700984029
:100FB4003E97835707005D8D2310A70097570000C5
:100FC40083C707CE91C7850717570000230AF7CCBC
:100FD400175700000347C7CC9757000083C757CC67
:100FE400E37FF7E8B24022449244024941018280FF
:100FF400139717003297035707006DF7850715B746
:1010040037C700408326C720B707FCFFFD17F58FBD
:101014002326F7200100010097570000938747C853
:10102400C84F832787262326D7206A0593C7F7FF4F
:1010340099835D8D8280011197570000938787FA09
:1010440022CC03A4070C26CA06CE2AC42EC6854485
:1010540019E40145F2406244D24405618280834729
:10106400910003471400858B6304F7000044CDB757
:1010740019469305A10013052400153EE31895FEB7
:101084000545C9BFEFF07FD37300000000000000E6
:1010940097520000938262C50383020023800200FA
:1010A400630F0300F32510342EC0970500009385C9
:1010B400A5FD73901534EF00204C7300203086DCBE
:1010C400EF00804BE65082800000175700001307A2
:1010D40027E01443411122C49C5E4AC006C699838A
:1010E40026C2858B3A8417590000130929DED1CB17
:1010F400930700069CDE17570000034707DE93079B
:101104000008975400009384E4DC631BF7008327F2
:1011140009009C4393F7070417570000230FF7DADD
:1011240083C7040093F707049DC397570000938770
:10113400E7BB9C4382979757000023ABA7DA83C78A
:10114400040093F7F70B175700002305F7D883C75C
:10115400440093F7070495E7854717570000A30D4C
:10116400F7D697570000938767D99C433707020047
:1011740098C7130700FC97560000238FE6D49848BD
:10118400F8D318401C5F9183858B8DC31C5F93E754
:1011940007011CDF97570000938747D69C4323A27F
:1011A40007068547175700002308F7D2832709004D
:1011B400D8430583058B19C7D843759BD8C3D84337
:1011C400799BD8C3B24022449244024941018280AF
:1011D400ED3D730020309317D50063D30702975772
:1011E40000009387A7D19C437D57B8D79757000039
:1011F400938707ABDC4F8507175700002320F7AC14
:10120400937785008DC39757000083C7C7CC93E7B6
:101214001700175700002300F7CC930700F817575F
:101224000000230BF7CA9377150099CB975700005A
:1012340083C757CA93E7170017570000A30CF7C8D2
:101244009377650095CF17570000A30707C8137756
:101254004500975700009387E7C74DCB83C7070026
:1012640093E71700175700002306F7C697570000A7
:10127400938707C698435C57F19B93E717005CD7A5
:101284009317F50063D4070217570000034707DDDF
:10129400418B975700009387E7D451C383C78707CF
:1012A40093E7070217570000230AF7DA9317E500BC
:1012B40063D707029757000083C707C2E207E18795
:1012C40063D707008547175700002307F7C09757D0
:1012D40000009387A7C29C433707020098C793175F
:1012E400C50063D4070217570000034737D7058B9F
:1012F40097570000938707CF29C383C7970793E7BE
:10130400270017570000A30BF7D4828083C7370048
:1013140093E7170017570000A30FF7BA81BF03C75D
:10132400870789463D8B6308D70083C787070D4726
:10133400BD8BE39DE7F69147B5B703C79707118BBC
:1013440069D783C7970793E7870065BF975700005E
:101354009387C7BA9443975700009387A7B703C7E7
:101364000700058B11CB97570000238707B69757C3
:101374000000A38307B6828003C71700058B65F7B7
:10138400F85271FF83C75700DDB7175700001307E2
:1013940027B403280700832788039583858BADEF43
:1013A40011C683270803BD832300F6009DC61C4392
:1013B400985B4607935767016356070093E707C096
:1013C400C207C18303970600C207C18709C7BA973A
:1013D4000947B3C7E7022390F6008DCD8345150076
:1013E40095C99757000083C747AF93F7070413873E
:1013F4009500894585C33A95834705000547994576
:1014040093F6F7066398E600E207E187814563D324
:101414000700B9452E8582808545EDBF411126C25E
:1014240006C622C497540000938444AD3DED944015
:10143400AE87F8527DFF37F400E03E8597570000F1
:10144400238B07A8832704D1B285ED9B2328F4D0EE
:10145400832704D193E787022328F4D07300501024
:10146400977001E0E780406397570000938747A691
:101474009C43B70680009843558F98C3D857719BF7
:10148400D8D797570000A38907A497570000A383D0
:1014940007A49C40094798C3832704D193E7870096
:1014A4002328F4D0730050100DA08D476315F50464
:1014B400975700009387C7A19C43B70680009843C1
:1014C400558F98C3D857719BD8D7944017570000AD
:1014D400130747A083472700858B89EB8347370091
:1014E400858BC1CB975700002388079EB2402244C6
:1014F4009244410182808547E319F5FCB7F700E087
:1015040003A707D16D9B23A8E7D003A707D11367CF
:10151400870223A8E7D07300501098408177FD1705
:101524005447F58F5CC70F1000009840B7070200BE
:101534001CC7930700F817560000230FF698975717
:1015440000009387E7989C439C439D83858B639F0E
:10155400A700930760197CD354C737F700E08327AB
:1015640007D193E787002328F7D02DBF9307E01B0B
:10157400DDB7FC52A5F39DBF9757000093870798EA
:101584009C438847D847798D09C988C79387019EAA
:1015940003A30700630303000283828097570000BC
:1015A4009387C79598438967938707F47CD39757A4
:1015B40000009387E7999C4383A607091396560076
:1015C4006358060083A60709139666006344060061
:1015D4007453FDF282804111B7E700E022C48043D6
:1015E4003707200006C6798C23A0E7180F100000E7
:1015F40011C199E5B7E700E023A0871001457DA854
:1016040093073500C207C183F19BC207C183130747
:1016140040036369F702175700001307279C084328
:10162400175700001307079B14436392A60217473A
:1016340000001307676C185B55DFC207DD8D054595
:1016440002974DBF1757000013070799C9BF0357E7
:1016540065002DEB035745006366F706B306F740B4
:101664002146637CD60203280500938687001D8FDC
:10167400AA966117174600000356E6622392E60015
:1016840023A006012393060014C12312F5001307B7
:1016940086FF974600002398E6602313B50097451C
:1016A400000083D54560B387F54017470000231C2D
:1016B400F75EB7E700E023A087102105B24022447B
:1016C40041018280084195B7B7E700E08C433707B2
:1016D400200023A0E718F98D0F10000001E523A0D6
:1016E400B7108280975700009387478F03A30700A2
:1016F400975700009387078E83A8070081469A872F
:1017040063F2170D03A807006361F50C636FA80A61
:10171400138787006368E50A03D667002167050716
:101724006317E60003C7819D0507238CE19C1745D9
:1017340000001305E55603D64700035765002393BD
:101744000700329742074183174E0000231DEE54D1
:10175400638C6702175300001303038803230300F9
:101764006304F30203D366006310030283D74600C5
:1017740023A0060121073E9621062392C60097471F
:1017840000002392E752B6879843630D17039756D8
:1017940000009386668494426306D70283566700EA
:1017A40095E283D64700035647001843A106B29634
:1017B4002392D70098C383576500A10717470000F9
:1017C4002313F74EB7E700E019BFBE86C2870DBFEB
:1017D4000327851163020712411122C406C68347F9
:1017E400C5008345E5042A8493F7C70F2306F50053
:1017F400834697000356C70013958601618563F2FB
:10180400C508635B05060345870093F6F607A30442
:10181400D700054693E627006314C50093E6170036
:101824002306D4005C4389075CC3A30AB4000325E0
:1018340004112E864C430905EFF02FAA8327841147
:1018440003465401D44303D7C700B296118FD4C3BF
:101854002396E7008947A30DF400034764039747E1
:10186400000083C7874A6378F7048347C40093E77B
:1018740007012306F40081A093E717002306F40070
:101884006DB79376F60F635D0502034587008545C2
:1018940013E627006314B50013E617002306C400FB
:1018A400A30AD400A30407008547A30DF4008327EB
:1018B40084119C43DDF3B2402244014541018280FE
:1018C40093E717002306F400A30AD400A304070037
:1018D400032504114C430905EFF02FA0832784113D
:1018E40003465401D44303D7C700B296118FD4C31F
:1018F4002396E7008D4755BF054582809757000022
:10190400938707819C43411122C406C6858B2A8490
:10191400C5EF4165130525F5974002E0E78020B93E
:1019240045C58347A5002315F50083270412BDE7A9
:101934002320A4122322A41285472311F404232074
:1019440005008347640154412316F5000347D4007E
:101954002304E5000547A304E50017470000130727
:10196400675758531385170215811C437D1513754A
:10197400F50F9CC25C43DCC21C479CC65C47DCC6BA
:101984001C4B9CCA5C4BDCCA1C4F9CCE5C4FDCCE0F
:1019940019CD9386060213070702C1BF8327441299
:1019A40088C3835724042322A412850779B7974751
:1019B400000083D7A7638507174700002318F76241
:1019C400B2402244410182808347C40023090400B9
:1019D400054593C747002306F400DDB78347850117
:1019E40093F7E70FD5EF83479501DDEB0346250118
:1019F4008346C50009CA83456503174700000347AA
:101A0400D73063E7E50013F7060141CF014709C664
:101A1400C18A0357651C81C68356A51C369751C3DA
:101A24001307C7121745000003554532B335A70203
:101A340037460F00411113060624814622C426C2EC
:101A440006C67D543305A702976002E0E780607BF9
:101A54009747000083C7B72BB384A70097470000BC
:101A64009387475803A787098327070963F38700E8
:101A74003E84184375FB97470000938727279C43B0
:101A8400829781476364A400B307A440B240224410
:101A9400B3B7970093C7170092443E8541018280F3
:101AA40081473E8582809747000093872745984366
:101AB4003C5BFDFF010001008280011122CC4AC879
:101AC4004EC606CE26CA52C456C25AC00347B500F3
:101AD40085472A842E89832905096310F7208357B3
:101AE4000508035BC503974A000083DA2A26174AD0
:101AF4000000130A2A2563FA671B834605016396CF
:101B0400E61A032785116312071A0327450A631E81
:101B140007188346F5001D476399E6180355A50386
:101B2400330BFB409307204E33056503832444099C
:101B340037460F008146130606243305F5029747FE
:101B4400000083C7C71CB3549502B3B5AA02BE9460
:101B5400C204C180231394083385AA02976002E06B
:101B6400E780206AB307350133B5A7002E953E8779
:101B740083264A0019E163E4D7003387D740B3844E
:101B84005403B7460F009387F62393860624232035
:101B9400E900A697B3D7D702DA976362F7101D8FCF
:101BA4002320E900974900009389491483A7090079
:101BB40083240900829763E5A4123385A440635407
:101BC400050C83A709008297032709006361E512C6
:101BD400198D8357E40317470000035727178E070F
:101BE400B387E7021307003293870719B3D7E702D5
:101BF40063E7A710374A0F00130BFA23974A000034
:101C0400938A4A14130A0A24835704048507231069
:101C1400F4048347041499E32285592A22859720E2
:101C240002E0E780607D75E9832604098327C40800
:101C340003A74A00B6973E8563E4D70063E4E70050
:101C44003385E7408347F401835464082328A408B8
:101C54008507A30FF4009747000083D7270FB384A9
:101C6400F402DA94B3D444036368950CB304954046
:101C740083A7090023209900829763E3A40C33858A
:101C8400A440E34305F89747000083C7570863E778
:101C9400A7089747000023A7873E014541A0832654
:101CA4004A00B387F6403E97E5BD8354640837473E
:101CB4000F009307F723B3845403BE9493070724B8
:101CC400B3D7F40263E7F900B387F9402320F9009E
:101CD400D1BD03274A00BA99C5BF23A03501D9B5A0
:101CE4009747000093870706DC43BE94F9B59747EE
:101CF400000093872705DC43998F3E95D9BDA14504
:101D04002285972002E0E7800068A305A402974794
:101D14000000938767FE9C5B81EF7D55F24062442F
:101D2400D2444249B249224A924A024B0561828016
:101D3400894515458297D5B7B3049740AA940DBF3A
:101D440083A74A00BE9425BF3DC101116C0022CC7B
:101D540006CE2A849D3339C5FD57630AF50297469A
:101D64000000938666F9D45232479747000083C730
:101D740017FA91C285836360F702B307F7403EC642
:101D8400B24503459402977000E0E780A0FEF2405C
:101D9400624405618280974600009386A6FAD44285
:101DA4003697E1BF973002E0E7806021CDB78280AB
:101DB400797126D206D622D44AD04ECE52CC56CAF7
:101DC4005AC85EC68347550303447513AA843E94D8
:101DD4001374F40F9307400263F687001304B4FDF1
:101DE4001374F40F03AA841383AAC413A38B841259
:101DF40022865285D685976002E0E78000FD05893A
:101E040015E503CBD41201498149337B6403930B59
:101E140050024A865285D685976002E0E780E0FA50
:101E2400058915C5639169031374F90F238B841213
:101E3400B250225492540259F249624AD24A424B55
:101E4400B24B456182808509E20993D9894105092C
:101E5400E31179FDE1BF83278509035605047971F0
:101E640093D60701BD8EC206C182358E13577640C4
:101E740093575640898B058B5D8F93573640918BD2
:101E84005D8F93571640A18B5D8F93171600C18BFE
:101E94005D8F9317360093F707025D8F93175600F3
:101EA4009355860093F707041E065D8F1376F60F8D
:101EB400518F93D7554013D63540118A898BD18FD2
:101EC40013D67540D18F13D61540218AD18F13961E
:101ED4001500418AD18F1396350013760602D18FEF
:101EE40013965500137606049E05D18F93F5F50FCE
:101EF400CD8FA20745465D8F3307C70222D42A84BB
:101F040026D252CC56CA032A8413832AC4135AC82D
:101F140006D6369742074183935777401355574067
:101F24000989858BC98F135537401189C98F13557A
:101F340017402189C98F131517004189C98F1315BB
:101F4400370013750502C98F131557009355870081
:101F5400137505041E07C98F1377F70FD98F13D58F
:101F6400354013D755401189098B498F13D57540D6
:101F7400498F13D515402189498F1395150041893F
:101F8400498F1395350013750502498F1395550034
:101F9400137505049E05498F93F5F50F4D8F2207A0
:101FA400D98FB387C7024AD04ECE5EC662C4B697F5
:101FB400C207C18313D7774013D557400989058BCE
:101FC400498F13D537401189498F13D5174021897B
:101FD400498F139517004189498F1395370013755D
:101FE4000502498F1395570093D58700137505048F
:101FF4009E07498F93F7F70FD98F13D5354013D721
:1020040055401189098B498F13D57540498F13D5D4
:1020140015402189498F139515004189498F1395DE
:10202400350013750502498F139555001375050482
:102034009E05498F93F5F50F4D8F2207D98FB387EE
:10204400C702130650025285D685B697BD8E939467
:102054000601C18033F6C402137BF60F976002E0D9
:10206400E780A0D605890DED8347D4120149814943
:10207400B3849702130C5002C1804A865285D685D8
:10208400976002E0E78060D40589937BF90F11C55E
:1020940063863403850993F9F90F0509E31F89FD64
:1020A400230B6413B250225492540259F249624AE7
:1020B400D24A424BB24B224C456182805E8BCDB7F3
:1020C4000111974700009387E7F122CC03A4870C02
:1020D40026CA4AC84EC606CEAA84130925008549D5
:1020E40015C083C7140003473400858B6304F700CD
:1020F400405CFDB71946930544004A85EFE03FABC9
:10210400E31835FF2285F2406244D2444249B24981
:10211400056182804111974700009387A7EC22C490
:1021240003A4870C26C24AC006C6930425000549A9
:1021340001E82285B240224492440249410182804E
:10214400A6851305A402974002E0E780C043E3029A
:0821540025FF405CF1BF000013
:10215C00971100209381C1B2174100201301C1696E
:10216C001305400097E5FF1F938505E9170600202E
:10217C00130606FE63FAC5008322050023A0550052
:10218C0011059105E3EAC5FE17A502001305C5E587
:10219C00970500209385C5FB1386818B63FAC500D8
:1021AC008322050023A0550011059105E3EAC5FE25
:1021BC001385818B97450020938505F66377B500D1
:1021CC00232005001105E36DB5FEFD42739002BCA2
:1021DC008D4273904280930280087390023097E294
:1021EC00FF1F938262E193E23200739052309702A8
:1021FC0000009382220873901234730020302A83DB
:10220C0009CA83830500230073007D160503850529
:10221C006DFA82802A8311C62300B3007D16050354
:10222C0065FE828015C22A8385466367B500FD561C
:10223C001307F6FF3A93BA958383050023007300C6
:10224C007D163693B6956DFA8280B717004093874A
:10225C00870A9843411106C61367072098C38D451A
:10226C0013050020EF60800FB24041016F602042E7
:10227C0041111305800406C697E0FF1FE780A00AF2
:10228C00E937EF1060610D45EF50C0140145EF5078
:10229C00201517850200130525B3EF602262EF406D
:1022AC00C05EEF406075EFD0413AEF109074EF4094
:1022BC00E043EF30203097E0FF1FE78000DDB2866F
:1022CC002E86AA852D4517E3FF1F67008341B28632
:1022DC002E86AA85294517E3FF1F67008340AE862B
:1022EC000146AA85254517E3FF1F6700833F7971D7
:1022FC0022D406D62E84814717270020130707D631
:10230C001308F00FA9453386E7000346060093F641
:10231C00F70F630BA600630606018507E395B7FE6E
:10232C00A94636972300A70097270020938747D20A
:10233C00B69723808700E147630AF5009307700284
:10234C00630DF50AB2502254456182801377340034
:10235C00954711CB854699476307D70089469D471A
:10236C006303D700A14713784400333800019378F6
:10237C0084030508638108022147638AE8066147E4
:10238C006389E806130780026387E8061307800356
:10239C006393E80091481387418E23020701A3023F
:1023AC0017012303F70042CE46CC3ECAEF50E002A1
:1023BC000D47D247E24872486377A702198013444D
:1023CC001400058897860200938686A022C0178782
:1023DC0002001307A79F178602001306A69FB68557
:1023EC001145EF50400085472381F18EA1BF8548F0
:1023FC005DB789484DB78D4879BFEF40107E8D474A
:10240C00E3F2A7F4A2872254B25097860200938677
:10241C00269C178702001307679B1786020013067A
:10242C00669EB685114545616F40F07BAA87238077
:10243C000500014717250020130545C21308F00FAE
:10244C002946B306A70083C606006393F6029726B7
:10245C0000209386E6BF3697034707000545238087
:10246C00E5001D47636DF7001547636EF70082802A
:10247C00638506010507E316C7FC0145DDB7614717
:10248C006386E700828023800500828003C70500F5
:10249C00B737004083C7370013770704D98F2380E1
:1024AC00F50082801D71CEC686CEA2CCA6CACAC843
:1024BC00D2C4D6C2DAC05EDE62DC66DA1387018D66
:1024CC00834407009389418CB387990083C7070025
:1024DC00ADC39387140093F7F70F8D4663F3F600A3
:1024EC0081472300F7009387818CA69783C7070049
:1024FC009306000313F7F70F93F7F70363EEF60059
:10250C001377070241EB05476385E7160947638A92
:10251C00E70A99E36F00B077B7E700E037074000B0
:10252C0023A0E71801000100A6992380090023A02D
:10253C00E710B787004003C76700058B19E36F10DE
:10254C00600383C6618F05476384E6006F10C0008B
:10255C0029472381E70209472383E7022385E70202
:10256C00A380018C2380018CB7870040A3810700D6
:10257C00A388018E05472383E700F6406644D644C2
:10258C004649B649264A964A064BF25B625CD25CD7
:10259C0025618280811793F7F70F4147E36EF7F6B9
:1025AC0017870200130747A78A07BA979C43BA9765
:1025BC008287FD57A38FF18A85B7FD57238FF18A48
:1025CC00A1BF9387C18CA69703C40700EF40F060AE
:1025DC008D471374F40F63F3A7029776020093866A
:1025EC00267FA287177702001307477E1786020003
:1025FC0013060683B6851145EF40F05EEF40F05DA3
:10260C0009496372A902EF40505D637EA9008D46B3
:10261C002286972500209385A59B1775020013052C
:10262C00257BEF4070650546A28517250020130514
:10263C00259AEF30307B8547A389F18C2389818CD7
:10264C00A380F18E37E700E0B70640002320D718AF
:10265C0001000100378600408347A60293F7370F2D
:10266C002305F6022320D71045BD8547238AF18C1C
:10267C0065B59387C18CA69703C40700EF40F0554E
:10268C008D471374F40F63F3A702977602009386B9
:10269C002674A28717770200130747731776020078
:1026AC001306067AB6851145EF40F053EF40F05211
:1026BC0009496372A902EF405052637EA9008D460E
:1026CC002286972500209385A59417750200130583
:1026DC002570EF40705A0546A2851725002013057A
:1026EC002593EF3030708547238BF18CA38A818C36
:1026FC00A380F18E37E700E0B70640002320D718FF
:10270C0001000100378600408347660293F7370FBC
:10271C002303F60281BF8547A38BF18CF5BB93870E
:10272C00C18CA69783C7070021471389C18E13F666
:10273C00F70FE39CE70E172A0020130AEAA683473B
:10274C006A00938AB18E2380FA0083477A0081C78E
:10275C00FD572380FA0003470A0083471A001374BD
:10276C00070662072300F9006187635C07061307FD
:10277C0000046301E40C630B044213070002E3162C
:10278C00E40AE38D872E13071002639CE706EF40E3
:10279C00D0448D4763F4A70283474A009776020022
:1027AC0093860663177702001307476217860200A9
:1027BC0013060680B6851145EF40F04223AC418BE1
:1027CC009387418E03C76700944383D74700230345
:1027DC00EA002320DA002312FA00130400081D4A31
:1027EC00A9A113070004630DE4066303043C13075B
:1027FC000002E31CE402E386871813072002E38F30
:10280C00E722EF40903D8D47E3F1A7028347090093
:10281C00977602009386C65B177702001307075B57
:10282C001776020013060677B6851145EF40B03BCC
:10283C006F00A07F130400081307100A6387E71CBE
:10284C006362F70213075009638DE7161307A0099B
:10285C006386E7021307F0056382E734014AF1A6A9
:10286C000144D9BF1307400A638FE7301307200BCD
:10287C00E396E7FE85472381F18ECDB703452A0009
:10288C00C947834A3A0083454A00034A5A006315F4
:10289C00F512CD476392FA12930770086398F5040A
:1028AC001307300FB7170E006308EA009307900D5B
:1028BC006310FA10B7B7040023A2F18E3ECEEF409E
:1028CC00D0310D47F247E37BA7F897760200938649
:1028DC002650177702001307674F1776020013066E
:1028EC002658B6851145EF4010308DBF93078008F0
:1028FC00639DF500330A4041B7774600137AFA0F0F
:10290C00938787CDB3D7470345BF93079008639A46
:10291C00F500330A40419167137AFA0F9387C76623
:10292C00D5B79307A008639BF500330A4041B7174E
:10293C003D00137AFA0F93870790E9B79307B00815
:10294C00639AF500330A40419167137AFA0F938723
:10295C0097D04DBF93F5F5078D47639BF500330A70
:10296C004041B7975B00137AFA0F938707D859BF8A
:10297C008947639BF500330A4041B7770B00137A04
:10298C00FA0F9387071BBDBF8547639AF500330A7F
:10299C004041DD67137AFA0F938767E3A5B789E99E
:1029AC00330A40418D67137AFA0F938777DC99BF0E
:1029BC00F1679387072009B71D3AD2855685053AEA
:1029CC0071BD03452A00034B3A0093056102B93CE3
:1029DC00930571025A85993C2C1023ACB18A83471C
:1029EC0061022304F10283477102A304F1028947B7
:1029FC000946171500201305257B2380FA0097E064
:102A0C00FF1FE780000D094A0DA483072A00E3D7B6
:102A1C0007E483473A0013F7370009CB8546630276
:102A2C00D70889466315D7001D4611A0154613F724
:102A3C0047003337E00093F78703050785C3A146AA
:102A4C006383D706E1466382D706930680026380D0
:102A5C00D706930680036393D70091479386418EE4
:102A6C00A382F60083474A002382E6002383C60034
:102A7C0013F6070403475A000DEE93F7770C130671
:102A8C0070086390C70A1306300FB7170E0063085F
:102A9C00C7009307900D6314F70EB7B704009CC2E0
:102AAC0031BD194669B7854755BF894745BF8D4725
:102ABC0075B713067008E388C7FC1306800C639D7A
:102ACC00C7003307E040B77746001377F70F9387BB
:102ADC0087CDB3D7E702E1B71306900C639AC70012
:102AEC003307E04091671377F70F9387C766D5B725
:102AFC001306A00C639BC7003307E040B7173D00DB
:102B0C001377F70F93870790E9B71306B00C639A06
:102B1C00C7003307E04091671377F70F938797D07F
:102B2C004DBF93F7F7070D46639BC7003307E04093
:102B3C00B7975B001377F70F938707D859BF0946F0
:102B4C00639BC7003307E040B7770B001377F70F91
:102B5C009387071BBDBF0546639AC7003307E04048
:102B6C00DD671377F70F938767E3A5B789EB330717
:102B7C00E0408D671377F70F938777DC99BFF16788
:102B8C009387072029BF83472A00C18B89C78547B4
:102B9C00238FF18CE1B1238F018CC9B12C1023ACA4
:102BAC00B18A930700032314F10291B513040008B2
:102BBC002947636CF746177702001307274A8A07E1
:102BCC00BA979C43BA978287034B3A008D476306AA
:102BDC00FB12138A818B63EC670785476304FB0840
:102BEC0009476304EB0C83C70A001307000413FAAC
:102BFC00F70F6374F700130A0004138B818B832582
:102C0C000B005286171500201305055A97E0FF1F7D
:102C1C00E78020EC83C70A00B38747412380FA0082
:102C2C0083270B00D2972320FB008347090015470D
:102C3C006397E768B7E700E03707400023A0E71881
:102C4C0001000100B78600402380460375AD99470B
:102C5C00E31BFBF8977702009387874D2320FA003C
:102C6C00A9472DA883C7618F4946977502009385A4
:102C7C00255163966701977502009385254A1715B0
:102C8C0000201305E52497E0FF1FE78080E49717E9
:102C9C0000209387E7232320FA00C94703C70A00C3
:102CAC00E3F3E7F42380FA003DBF03C7618F171BE2
:102CBC000020130BEB216312F702130670029775B9
:102CCC000200938525435A8597E0FF1FE78060E05B
:102CDC009307700223206A01D1B71306300497754D
:102CEC0002009385A5455A8597E0FF1FE78060DEBB
:102CFC009307300423206A0155B7EF40006E6374CC
:102D0C00AB0283472A00977602009386660C1777EE
:102D1C0002001307A70B1776020013062616B685BA
:102D2C001145EF40406C03C7618F85476310F70C6A
:102D3C00EF40A06A8D4763F4A70283472A00977679
:102D4C0002009386E6081777020013072708177608
:102D5C0002001306A612B6851145EF40C0688347E2
:102D6C002A00BDCF1387F7FF1377F70F8946E3ECE3
:102D7C00E6E60547177A0200130A0A31638CE7006E
:102D8C00177A0200130ACA326396D700177A020028
:102D9C00130A8A305285EF50B2391375F50F1307A9
:102DAC001500971700209387A71206072380E700CA
:102DBC000D47A380E700BE8601473306EA000346B1
:102DCC0006000507A38107002381C7001376F70FC0
:102DDC008907E364A6FE23ACD18A83C706007DBDB8
:102DEC009387818523ACF18A91474DBDEF40E05E1E
:102DFC008D4763F4A70283472A00977602009386D7
:102E0C0026FD17770200130767FC177602001306DE
:102E1C00E606B6851145EF40005D83472A00E9D3ED
:102E2C001387F7FF1377F70F8946E3EEE6DA0547CA
:102E3C00177A0200130A8A28638CE700177A0200BB
:102E4C00130A4A2A6396D700177A0200130A0A2833
:102E5C005285EF50F22D1375F50F130715009717C8
:102E6C0000209387E70606072380E7000D47A38021
:102E7C00E700BE8601473306EA0003460600050755
:102E8C00A38107002381C7001376F70F8907E3643A
:102E9C00A6FE91B7EF4060548D4763F4A7028347B9
:102EAC002A00977602009386A6F217770200130782
:102EBC00E7F1177602001306A6FDB6851145EF4023
:102ECC0080529387018F03C7570013674700A38273
:102EDC00E70003472A00A380E70049B2EF40E04F28
:102EEC008D4763F2A70297760200938666EE1777FA
:102EFC0002001307A7ED17760200130626FBB68512
:102F0C001145EF40404E83C7018F2300FA0003CADE
:102F1C000A00333A400111BBEF40204C8D4763F25D
:102F2C00A702977602009386A6EA1777020013078A
:102F3C00E7E917760200130666F9B6851145EF40EE
:102F4C00804A9387018F03C7570013670701A38239
:102F5C00E70003472A002380E70009B2EF40E0476F
:102F6C008D4763F2A70297760200938666E6177781
:102F7C0002001307A7E517760200130626F7B6859D
:102F8C001145EF40404603470A007D8B35EBB78770
:102F9C00004003C767021377C70B1367270023830F
:102FAC00E70203C7A7021377C70B13672700238514
:102FBC00E70203C7E7021377C70B136727002387C2
:102FCC00E70203C727031377C70B1367270023896F
:102FDC00E7028547A38BF18C238AF18C238FF18A2E
:102FEC00A38FF18A238B018CA389018CA38E018A78
:102FFC00238E018AA380018C2380018C6FF01F86A5
:10300C0089476314F70283474A0093061008638BC1
:10301C00D70C63EBF6048D466388D70A63ECF60293
:10302C008546638DD70C6388E70AFD572300F900AA
:10303C0037074000B7E700E023A0E71801000100C4
:10304C00B78600401306F0FC2381C60223A0E710CC
:10305C006FF08FCC1147E39AE7FC3787004083472A
:10306C00270393F7370789A0130730086382E70417
:10307C00130740086382E70213072008E397E7FA77
:10308C00378700408347A70293F7C70B93E72700C6
:10309C002305F7026FF08FFC378700408347270327
:1030AC0093F7C70B93E727002309F7026FF00FFB89
:1030BC00378700408347E70293F7C70B93E7270056
:1030CC002307F7026FF08FF9378700408347E70239
:1030DC0093F73707F5B7378700408347A70293F775
:1030EC0037077DB7378700408347670293F7C70BD5
:1030FC0093E727002303F7026FF04FF63787004062
:10310C008347670293F73707F5B7EF40002D8D47DC
:10311C0063F2A70297760200938686CB177702009C
:10312C001307C7CA17760200130606DEB6851145CB
:10313C00EF40602B9717002023880706C9BBEF4090
:10314C00C0298D4763F2A70297760200938646C882
:10315C0017770200130787C717760200130686DC61
:10316C00B6851145EF40202897170020239E0702B3
:10317C0083C70A00094713FAF70FE378F7AA6FF031
:10318C009F88EF4080258D4763F2A7029776020057
:10319C00938606C417770200130747C317760200FD
:1031AC001306C6D9B6851145EF40E02301440D4BFB
:1031BC00977B0200938B8BC1177C0200130C4CC1C4
:1031CC00977C0200938C4CD9A14AEF40002163708C
:1031DC00AB02B3078A0083C707005E87E286668668
:1031EC00977502009385C5BE1145EF40C01F0504BD
:1031FC00E31D54FDEF40601E8D4763F2A7029776E6
:10320C0002009386E6BC17770200130727BC1776DB
:10321C0002001306A6D5B6851145EF40C01C8347A6
:10322C004A0091E7A38C018C01446FF02FE309470E
:10323C00E39DE7DE8547A38CF18CFDB7EF40E019E9
:10324C008D4763F6A70203483A0083472A00977616
:10325C0002009386E6B717770200130727B7177695
:10326C000200130666D1B6851145EF40C01783479F
:10327C002A00B337F000A38BF18E7DB7EF40E01539
:10328C008D4763F4A70283474A0097760200938622
:10329C0026B417770200130767B3177602001306DC
:1032AC0026D3B6851145EF400014A38C018C9717DB
:1032BC000020239B07EE130400086FF0CFF4254782
:1032CC00E38AE79619476391E702B78600402380AB
:1032DC004603B7E700E03707400023A0E7180100DA
:1032EC000100130600FC8DB31307100A6391E7026B
:1032FC00B786004023804603B7E700E0370740005D
:10330C0023A0E71801000100130680FC35BB13074E
:10331C00A009E38FE7FC1307400AE38BE7FC1307D4
:10332C002002E389E7900547E386E79093070008BE
:10333C00E302F490B7E700E03707400023A0E7185A
:10334C0001000100B786004023804603130620FCD1
:10335C00E5B983C7C18E130700026384E71E636758
:10336C00F7021547638AE70E19476388E704B786A7
:10337C00004023800602B7E700E03707400023A097
:10338C00E718010001001306A0FC7DB91307F00536
:10339C00638AE700130750096386E70013071002DE
:1033AC00E397E7FCB7E700E03707400023A0E718F6
:1033BC0001000100B786004051BF138BB18E034A48
:1033CC000B0093070004528963F4470113090004AE
:1033DC00938A818B83A50A001374F90F2286171523
:1033EC000020130565DC97D0FF1FE780806E8347B4
:1033FC000B00818F2300FB0083A70A00A29723A058
:10340C00FA00630E0A02B787004023802703B7E651
:10341C0000E03706400023A0C6180100010003C7D6
:10342C002702134707042381E70203C727021377F8
:10343C00C70F2381E70223A0C6106FF0EF8DB7866C
:10344C00004023800602B7E700E03707400023A0C6
:10345C00E71801000100DDBD3787004083473700C6
:10346C0083C6118F93F70708D58FA301F700B70612
:10347C004000B7E700E023A0D718010001001306B5
:10348C00A0FC2301C70223A0D7106FF0EF8893870D
:10349C00C18CA69783C70700CDC783C7618FD5E3BF
:1034AC0003C7C18E93070002631DF70811469715D9
:1034BC000020938565CF281097D0FF1FE7806061AF
:1034CC0097170020938747CE03CA470003C95700BC
:1034DC0003C46700EF3070708D4763F8A702225861
:1034EC00977602009386C68E4AC252C0A28883C7C2
:1034FC00918D177702001307678D1776020013065C
:10350C0026AFB6851145EF30106E83C7718F238CB3
:10351C00F18E22579387418E2382470198C3A38251
:10352C002701238387008547238CF18C37074000C4
:10353C00B7E700E023A0E71801000100B7860040C0
:10354C00E1B3B7E700E03707400023A0E71801001C
:10355C000100B786004005BD29472381E7020947D2
:10356C002383E7022385E7022387E7022389E70207
:10357C006FE01FFF83C66700918A99E26FE0FFFF3F
:10358C0083C75700918BA1C783C6618F8547639D05
:10359C00F6022381D18EA38BE18C238AE18C238FBD
:1035AC00E18AA38FE18A238B018CA389018CA38EE2
:1035BC00018A238E018AA380018C2380018CB7871A
:1035CC00004011476FE03FFB238CF18CE9B70547B6
:1035DC00D9B78547A38BF18C238AF18C238FF18A81
:1035EC00A38FF18A238B018CA389018CA38E018A72
:1035FC00238E018A8280411106C6E13FB7870040C5
:10360C0023800700130740FC2386E7001307C00440
:10361C00A386E70017170020130707B92398E700C4
:10362C0017170020130747B4239AE7001717002039
:10363C00130787AB239CE700171700201307C7A2BB
:10364C00239EE70029472381E70209472383E702EA
:10365C002385E7022387E7022389E702A38107007A
:10366C00930600F8A380D700930690022380D7001E
:10367C00FD562383D7002381E700B706400037E7C8
:10368C0000E02320D71003C7170013671700A3808F
:10369C00E700B2402398018E41018280411106C699
:1036AC000D3FB787004023800700130700FC2386DB
:1036BC00E7003147A386E700171700201307C7AEB2
:1036CC002398E70017170020130707AA239AE7008F
:1036DC0017170020130747A1239CE70029472381D4
:1036EC00E70209472383E7022385E702A38107004A
:1036FC00930600F8A380D700930690022380D7008E
:10370C00FD562383D7002381E700B706400037E737
:10371C0000E02320D71003C7170013671700A380FE
:10372C00E700B2402398018E410182807167938734
:10373C00418E1307072098C305472392E7002147C2
:10374C002383E7002381018EA380018EA38C018C3F
:10375C00238C018C97170020938747907D5798C333
:10376C00D8C32394E700971700209387678E23A074
:10377C00070023A2070023940700A38E018C238E3D
:10378C00018CA38D018C238D018C2380018EA38F42
:10379C00018C238F018C9387418C23800700A3809D
:1037AC00070023810700A3810700828003C7618F74
:1037BC0085476313F700DDB53DBD411122C406C634
:1037CC0003C7618F85472E8613F4F50FAA85631501
:1037DC00F704171500201305259597D0FF1FE780D8
:1037EC00402F238A018CB787004023848702B7E6D9
:1037FC0000E03706400023A0C6180100010003C7F3
:10380C00A7021377C70F2385E702B2402285224413
:10381C0023A0C61041018280171500201305C598FE
:10382C0097D0FF1FE780E02AA38B018CB78700405D
:10383C0023828702B7E600E03706400023A0C618B3
:10384C000100010003C767021377C70F2383E70248
:10385C006DBF011122CC26CA4AC84EC606CEAA8418
:10386C002E84130900049389818F01E8F24062448D
:10387C00D2444249B24905618280A28563748900B1
:10388C009305000483C70900F5D3C2052685C181C1
:10389C002D37AA94098CD1BF411106C6413D393749
:1038AC00B240B7E700E03707400023A0E710410122
:1038BC0082803285D041411106C6834516000348EB
:1038CC0006000D66A205B3E5050113980501135812
:1038DC0008419308A6A263C80803130626A26358DE
:1038EC00060375761306C65DB295C205C1811946ED
:1038FC006363B602177802001308C8898A05C2955B
:10390C00904142960286130606A56305C8102390C3
:10391C000600A94525A01D469D456361E60221468A
:10392C00198E63F3C7003E862390C6009385C18F22
:10393C00BA9597D0FF1FE780C0198145B2402E85FC
:10394C004101828009469D45E36AE6FE0D46198ECB
:10395C0063F3C7003E862390C60093858186C9BF5A
:10396C0005469D45E36CE6FC0946198E63F3C700DA
:10397C003E862390C600938541865DBF1D469D45BE
:10398C00E36EE6FA2146198E63F3C7003E86239058
:10399C00C600977502009385A58359BF09469D45BE
:1039AC00E36EE6F80D46198E63F3C7003E8623904E
:1039BC00C60093850186ADBF09469D45E360E6F8D8
:1039CC000D46198E63F3C7003E862390C60093857F
:1039DC00C185B9BF31469D45E362E6F63546198E81
:1039EC0063F3C7003E862390C6009765020093855B
:1039FC00257D3DBF35469D45E362E6F43946198E7B
:103A0C0063F3C7003E862390C6009765020093853A
:103A1C00257A39BF19469D45E362E6F23386E540C7
:103A2C0063F3C7003E862390C60097F5FF1F93856E
:103A3C0025A5FDBD97E6FF1F938686714146CD45B2
:103A4C0017E5FF1F130585716FC0C01B8280011124
:103A5C0026CA4AC84EC652C456C206CE22CC5AC03A
:103A6C00AA8AAE893289B6843A8AEF301017894710
:103A7C0063F3A7029766020093868676A68717677C
:103A8C0002001307A775176602001306E675B685C4
:103A9C000D45EF30501503C48900137404026311F3
:103AAC00040E03CB090089476314FB0C83A7490060
:103ABC0003C7070083C71700A207D98F0D67130729
:103ACC0027906381E7084167130717F06394E70AAF
:103ADC0063140A0A9307002063E2970AEF30F00F91
:103AEC00637FAB00EF30700F637BAB008D46268697
:103AFC00CA85176502001305A56EEF30F01783A772
:103B0C004190B9EBEF30700D894763F2A7029766CD
:103B1C0002009386E66C176702001307276C176682
:103B2C0002001306666EB6850D45EF30D00BF240E1
:103B3C0022856244D2444249B249224A924A024BFB
:103B4C000561828085475287A6864A86CE85568532
:103B5C00EFA040542A847DB79C43CDD72686CA85D6
:103B6C00014582970146A6854A85EF20B02759BFAB
:103B7C00054449BF294479B72D4469B7354459B731
:103B8C00214475B7011122CC26CA4AC84EC606CEAE
:103B9C00AE8432893684BA89EF303004894763F2B7
:103BAC00A702976602009386A663176702001307A5
:103BBC00E762176602001306A666B6850D45EF3060
:103BCC0090022D456398090203C704008947631EC0
:103BDC00F702DC4003C7070083C71700A207D98F81
:103BEC004167130717F0639EE7004A85A285EF1023
:103BFC00D02F0145F2406244D2444249B24905619A
:103C0C008280231004002945F5B7231004000545D4
:103C1C00D5B7411122C42A84058817050000130565
:103C2C0025E306C6EFE0403C05C02244B24097E6CF
:103C3C00FF1F9386A6654146914517E5FF1F1305A7
:103C4C00A56541016FB0107CB24022440145410191
:103C5C00828009C523A2A1900145828045458280BE
:103C6C0019E16145828009458280828041119397D8
:103C7C00050122C406C626C2C1872E8463D8070A52
:103C8C0003C58181EF40D033AA8421CD8347050041
:103C9C001307000B638EE7041307000D6390E70412
:103CAC0003472500C547631BF702EF3000738947B4
:103CBC0063F6A70203C8640083C77400976602000A
:103CCC009386865717670200130747511766020041
:103CDC0013060657B6850D45EF30E0702685EF408C
:103CEC0010222165218DB2402244924441018280F0
:103CFC00034745009307F007E312F7FEEF30E06D42
:103D0C008947E3FDA7FC83D784009766020093865E
:103D1C00A652176702001307674C176602001306BA
:103D2C00A654B6850D45EF30006C4DBF93F71500CA
:103D3C0085C317E6FF1F1306665B97050020938566
:103D4C00A56A03C58181EFB001281345140061BF3A
:103D5C0093F7850085C383C781811307400681468D
:103D6C0013064006994503D50191EFB0211F134569
:103D7C00840095BF93F70501B1C3EF300066894706
:103D8C0063FBA702014789460946814503D501918A
:103D9C00EFB0710B976602009386064AAA871767E5
:103DAC0002001307A743176602001306A64DB6853B
:103DBC000D45EF3040631345040135B713F545004D
:103DCC00E30305F203D50191EFB071050566130607
:103DDC0006C8914503C58181EF500001134544008D
:103DEC0019B7130101DF2E86AA850A852326112017
:103DFC0097D0FF1FE780E0CDEF30205E894763F25C
:103E0C00A7029766020093862643176702001307E2
:103E1C00E73C176602001306A648B6850D45EF3041
:103E2C00805C8320C120130101218280AA872E850A
:103E3C00B28591E37DB78280138701918357070088
:103E4C00011106CE6393A7043EC62311B7002312BB
:103E5C00C7002313D7002EC4EF302058094722483F
:103E6C00B247637BA704F240976602009386C63C78
:103E7C001767020013078736176602001306C6443D
:103E8C00B6850D4505616F300056EF3000558947FA
:103E9C0063F4A702F240976602009386E63917672F
:103EAC0002001307A733176602001306E643B68514
:103EBC000D4505616F302053F240056182801387F8
:103ECC0001918356450083570700011106CE22CC81
:103EDC006391F6041384818103450400C167F917CB
:103EEC0089451CC323AA0190EF50C01A0345040056
:103EFC009145EF50201A85471306F10085451305AF
:103F0C005030A307F100EFB0A13FF24062440561CD
:103F1C008280EF30804C8947E3F9A7FE6244F2407F
:103F2C009766020093864631176702001307072B2A
:103F3C00176602001306463BB6850D4505616F30CA
:103F4C00804A3D897D15954763E4A72A17670200CF
:103F5C001307874D0A053A951C41411122C4BA97A3
:103F6C0006C626C22E848287EF302047894763F924
:103F7C00A708176702001307672697660200938647
:103F8C00A62B17660200130666372244B2409244F1
:103F9C00B6850D4541016F30004583C72500194793
:103FAC00639DE7042E85213FEF302043894763F45E
:103FBC00A70283476400976602009386E62717677B
:103FCC0002001307A721176602001306E634B68514
:103FDC000D45EF304041EF304040894763F2A70276
:103FEC00176702001307871F976602009386C62483
:103FFC00176602001306863449BF0D47E38DE7FCB4
:10400C00B240224492444101828003C72500954767
:10401C00E318F7FE9387019183D607004167791760
:10402C0003D5A500638BE604EFB0A15FEF30E03A57
:10403C00894763F2A702976602009386E61F17670B
:10404C0002001307A719176602001306E630B6859F
:10405C000D45EF304039EF3040388947E3F2A7FA8D
:10406C001767020013078717976602009386C61C12
:10407C00176602001306463209BF03D7E500938486
:10408C0081812390A7002391E70003D7050103C585
:10409C000400130600642392E70003D72501894529
:1040AC002393E700EF40505403C504000966130640
:1040BC000690A145EF40505303C504000566130656
:1040CC0006C89145EF405052EF3020318947E3F458
:1040DC00A7F80358E4008357A40097660200938660
:1040EC00A615176702001307670F17660200130661
:1040FC00A628B6850D45EF30002FB1BF03C72500AC
:10410C008D47E31FF7EEEF30402D8947E3FAA7EE1A
:10411C00176702001307870C976602009386C61177
:10412C00176602001306C6288DB583C725001147F4
:10413C006394E702EF30602A8947E3F3A7EC176733
:10414C0002001307A709976602009386E60E17660E
:10415C0002001306262815BD1947639FE7022E851A
:10416C00B93BEF3080278947E3FCA7E8834764001D
:10417C001767020013078706976602009386C60B23
:10418C0017660200130646192244B2409244B685C3
:10419C000D4541016F30202515476397E70283C712
:1041AC001500C9FBEF3060238947E3FBA7E41767D1
:1041BC0002001307A702976602009386E6071766AC
:1041CC0002001306A623D1B3EF3020218947E3F96F
:1041DC00A7E283472400176702001307270097669E
:1041EC00020093866605176602001306662269BFF5
:1041FC008280130101DE17050000130565A7232E2D
:10420C001120232C812023282121232A9120EF50B7
:10421C00202513898181B7F507002300A900814669
:10422C003000E105194597C0FF1FE780804BEF3048
:10423C00C01A0944637FA400EF30201A637BA400EA
:10424C008D4619462C00176502001305E5FEEF306C
:10425C00A0228347D10017E4FF1F1304640B85448D
:10426C00A304F4008347C1001306510085452305C0
:10427C00F4008347B10013055030A3029100A3054D
:10428C00F4008347A1002306F40083479100A306A2
:10429C00F400834781002307F40099472313F100AE
:1042AC00930740062318F100EFB0810517E6FF1FB6
:1042BC0013064607BD4513057030EFB06104228626
:1042CC00C54513056030EFB0A103130661008945A5
:1042DC0013051031EFB0C1021008894513052031C8
:1042EC00EFB00102930500050D45EF607075930565
:1042FC0000051145EF60D07485457945EF60507429
:10430C001008914513057040A30191002302910000
:10431C00A302910002C823030100EF9091471306FA
:10432C003100854513050040EF90B146500085459E
:10433C0013051040EF90F1451306610085451305F8
:10434C002040EF9011451306510085451305504050
:10435C00EF9031447D55EF9090287D55EFB0501281
:10436C00EFF04FED7D55EFF0DF8A17E6FF1F1306D8
:10437C00A6F8D5450145EF9030151306C01F8145B1
:10438C00480826C8EFD01FE9100881450145EFF019
:10439C003F8DC167F9171385418123A8F19023AA9A
:1043AC000190EFF01F8B13858190EF80111D034559
:1043BC0009008545EF4030038320C121032481216E
:1043CC00832441210329012113010122828001113F
:1043DC001305F5FB06CE22CC1375F50FD14763EA16
:1043EC00A720176702001307271F0A053A951C41DF
:1043FC002E84BA978287EF20507E894763F2A702FA
:10440C00976602009386C60317670200130707DD41
:10441C001766020013064603B6850D45EF20B07CE7
:10442C00854522856244F24005616F30A016EF206D
:10443C00D07A894763F2A7029766020093864600FA
:10444C0017670200130787D91766020013060602C6
:10445C00B6850D45EF20307981452285EF308013EC
:10446C006C002285EF20B06905C9EF2010770DC1D3
:10447C00976602009386C6FC176702001307470174
:10448C001766020013060601B6850545EF20B075C8
:10449C00F24062440561828032459385C18AEF20E7
:1044AC00D06FFDB7EF207073894763F2A702976650
:1044BC0002009386E6F817670200130727D21766E7
:1044CC000200130666FFB6850D45EF20D0718945B5
:1044DC0089BFEF209070894763F2A702176702002B
:1044EC001307C7CF97660200938686F517660200FE
:1044FC001306C6FEB6850D45EF20F06E2285EF2023
:10450C00A07059D5EF20706D41D5176702001307C5
:10451C0027F8976602009386A6F217660200130628
:10452C00E6FDB6850545C9A0EF20306B894763F2DF
:10453C00A70217670200130767CA976602009386E3
:10454C0026F0176602001306A6FDB6850D45EF2072
:10455C0090692285EF20903905DDEF2010680DD988
:10456C00176702001307C7F297660200938646EDA1
:10457C00176602001306C6FC6DB7EF20106689475C
:10458C00E3F9A7FC17670200130747C597660200FB
:10459C00938606EB176602001306C6FC7DB7EF2068
:1045AC00D0638947E3FCA7F417670200130707C31E
:1045BC00976602009386C6E817660200130686FC0F
:1045CC0015BFEF2090618947E3F4A7EC97660200D2
:1045DC00938606E717670200130747C017660200A9
:1045EC00130646FCB6850D456244F24005616F200A
:1045FC00905FEF20905EE30D05E81767020013074C
:10460C0027E9976602009386A6E317660200130655
:10461C0026FB01BF4111930735FB06C622C426C2F7
:10462C0093F7F70F19476367F71017670200130723
:10463C00E7078A07BA979C43AE843284BA9782877D
:10464C00EF20B059894763F3A7029766020093865F
:10465C0026DFA28717670200130747B81766020008
:10466C001306C6FCB6850D45EF20F057A2852244F3
:10467C00B2402685924441016F20F07EEF20F05528
:10468C00894763F3A70297660200938666DBA287CD
:10469C0017670200130787B417660200130606FBA0
:1046AC00B6850D45EF203054931504012244B240D9
:1046BC0026859244C18141016F20405CEF20F0516E
:1046CC00894763F3A70297660200938666D7A28791
:1046DC0017670200130787B017660200130606F966
:1046EC00B6850D45EF203050A2852244B240268578
:1046FC00924441016F205031EF20304E894763F3D3
:10470C00A702976602009386A6D3A28717670200BA
:10471C001307C7AC17660200130646F7B6850D459E
:10472C00EF20704CA2852244B24026859244410170
:10473C006F20B033EF20704A0DC52244B240924432
:10474C00976602009386C6CF17670200130747D4FB
:10475C00176602001306C6E6B685054541016F20B3
:10476C009048B240224492444101828023200600AA
:10477C007D576380E512011122CCAA8706CE130760
:10478C0090042E8532846385E704130750056388F3
:10479C00E70A13071004639CE70C6C00EF2030361B
:1047AC0025C5EF2090430DC197660200938646C93C
:1047BC00176702001307C7CD17660200130686CDD4
:1047CC00B6850545EF203042F24062440561828097
:1047DC00EF20507308C0EF2050408947E3F6A7FE46
:1047EC001C406244F24097660200938666C51767C8
:1047FC0002001307A79E176602001306E6ECB685A7
:10480C000D4505616F20303E3245A285EF20503BAF
:10481C00EF20B03C8947E3F9A7FA1C4097660200E9
:10482C00938606C2176702001307479B17660200A0
:10483C00130686EBB6850D45EF20F03A71B7EF20E5
:10484C00D0398947E3F2A7F897660200938646BFF2
:10485C00176702001307879817660200130686D4A1
:10486C00B6850D456244F24005616F20D037EF20CC
:10487C00D03639D997660200938686BC176702003A
:10488C00130707C117660200130686D3B6850545C4
:10489C00D1BF8280411106C622C4EF201034894753
:1048AC0063F2A70297660200938686B91767020027
:1048BC001307C79217660200130646E5B6850D4529
:1048CC00EF207032170400201304C4370345840012
:1048DC00A145EFF0DFAF034594009945EFF03FAFF2
:1048EC000345A4009D45EFF09FAE0345C400C145B0
:1048FC00EFF0FFAD0345D400A545EFF05FAD0345E8
:10490C00A401D145EFF0BFAC0345B401DD45EFF098
:10491C001FAC0345C40193057002EFF05FAB034578
:10492C00D401D945EFF0BFAA03452402A945EFF005
:10493C001FAA034534022244B240AD4541016FF039
:10494C001FA979714AD0138901948327090026D2B3
:10495C004ECE52CC56CA06D622D45AC8890723202A
:10496C00F900970400209384E42D9309D007930A4F
:10497C00D002176A0200130AAA0703270900B3869C
:10498C00E40083C7060063863707090783C6160051
:10499C002320E900269703440700FD17A20693F78E
:1049AC00F70F558C63E2FA048A07D2979C43D2978F
:1049BC008287EF209022894763F3A7029766020053
:1049CC00938606A8A287176702001307278117662C
:1049DC000200130666D5B6850D45EF20D02003C521
:1049EC0084002286A1453D318327090085072320B9
:1049FC00F90083270900A69783C70700E39F37F7C1
:104A0C00B250225492540259F249624AD24A424B51
:104A1C0045618280EF20701C894763F3A70297667B
:104A2C0002009386E6A1A287175702001307077BA3
:104A3C0017660200130686D1B6850D45EF20B01A15
:104A4C0003C594002286994579BFEF201019894738
:104A5C0063F3A702976602009386869EA287175778
:104A6C0002001307A77717660200130666D0B685F7
:104A7C000D45EF20501703C5A40022869D45A5B710
:104A8C00EF20B0158947E3F1A7F6A287175702006C
:104A9C001307C774976602009386869A17660200FE
:104AAC00130646CFB6850D45EF20F01335BFEF202A
:104ABC00D012894763F3A702976602009386469843
:104ACC00A2871757020013076771176602001306B7
:104ADC00A6CEB6850D45EF20101103C5C400228665
:104AEC00C14511B7EF20700F894763F3A702976692
:104AFC0002009386E694A287175702001307076EED
:104B0C0017660200130686CDB6850D45EF20B00D55
:104B1C0003C5D4002286A545F9B5EF20100C8947B2
:104B2C00E3F4A7ECA287175702001307276B9766CD
:104B3C0002009386E69017660200130666CC9DB7BA
:104B4C00EF20B0098947E3F1A7EAA28717570200C3
:104B5C001307C768976602009386868E1766020055
:104B6C00130646CC81B7EF2050078947E3FEA7E632
:104B7C00A287175702001307676697660200938691
:104B8C00268C17660200130626CC29BFEF20F004F2
:104B9C008947E3FBA7E4A2871757020013070764B2
:104BAC00976602009386C68917660200130606CC28
:104BBC00D5BDEF2090028947E3F8A7E2A2871757EB
:104BCC0002001307A7619766020093866687176633
:104BDC0002001306E6CBF9B5EF2030008947E3F568
:104BEC00A7E0A287175702001307475F97660200DA
:104BFC0093860685176602001306C6CB65B5EF20B3
:104C0C00C07D894763F3A7029766020093864683AB
:104C1C00A287175702001307675C1766020013067A
:104C2C00A6CBB6850D45EF20007C03C5A4012286DA
:104C3C00D14555BBEF20607A894763F3A70297569D
:104C4C0002009386E67FA2871757020013070759C5
:104C5C0017660200130686CAB6850D45EF20A078AC
:104C6C0003C5B4012286DD45BDBBEF200077894723
:104C7C0063F3A702975602009386867CA287175788
:104C8C0002001307A75517660200130666C9B685FE
:104C9C000D45EF20407503C5C401228693057002B3
:104CAC0099B3EF208073894763F3A70297560200EC
:104CBC0093860679A28717570200130727521766A7
:104CCC000200130626C8B6850D45EF20C07103C53A
:104CDC00D4012286D94501BBEF202070894763F3AC
:104CEC00A702975602009386A675A2871757020053
:104CFC001307C74E17660200130606C7B6850D4587
:104D0C00EF20606E03C524022286A945E9B9EF2085
:104D1C00C06C894763F3A7029756020093864672CC
:104D2C00A287175702001307674B1766020013067A
:104D3C00A6C3B6850D45EF20006B03C53402228651
:104D4C00AD4555B185476311F4041387C191834771
:104D5C0007009306F00F6385D70085072300F70043
:104D6C00EF20A0678947E3F1A7C883C7C191175704
:104D7C0002001307A746975602009386666C1766C7
:104D8C0002001306E6C039BB61FC1387C19183474F
:104D9C000700F9D7FD17D9B785476311F4041387BA
:104DAC00B191834707009306F00F6385D700850701
:104DBC002300F700EF2060628947E3F7A7C283C79F
:104DCC00B19117570200130767419756020093865B
:104DDC00266717660200130626BDE9B161FC13872E
:104DEC00B19183470700F9D7FD17D9B7138BA19160
:104DFC0023008B00EF20605E8947E3F7A7BE834753
:104E0C000B00175702001307673D97560200938655
:104E1C002663176602001306A6BA69B1138B91912B
:104E2C0023008B00EF20605B8947E3FFA7BA834721
:104E3C000B00175702001307673A97560200938628
:104E4C00266017660200130626B9A9B99357844049
:104E5C009DCB05476397E70083C7C1912386F192E9
:104E6C0061B609476395E70083C7B191C5BF0D478C
:104E7C006395E70083C7A191D5B71147E396E7B6D1
:104E8C0083C79191E1BF23868192B9BE9357844029
:104E9C009DCB05476397E70083C7C191A385F1922A
:104EAC00A1B609476395E70083C7B191C5BF0D470C
:104EBC006395E70083C7A191D5B71147E396E7B295
:104ECC0083C79191E1BFA385819239BE93578440EA
:104EDC009DCB05476397E70083C7C1912385F1926A
:104EEC0021B609476395E70083C7B191C5BF0D474C
:104EFC006395E70083C7A191D5B71147E396E7AE59
:104F0C0083C79191E1BF23858192F9BC935784406B
:104F1C009DCB05476397E70083C7C191A384F192AA
:104F2C00E1B409476395E70083C7B191C5BF0D474D
:104F3C006395E70083C7A191D5B71147E396E7AA1C
:104F4C0083C79191E1BFA384819279BC935784402C
:104F5C009DCB05476397E70083C7C1912384F192EA
:104F6C0061B409476395E70083C7B191C5BF0D478D
:104F7C006395E70083C7A191D5B71147E396E7A6E0
:104F8C0083C79191E1BF23848192B9BCB717555364
:104F9C009387D7A0138B41933EC483470B009D4549
:104FAC0028002306F100B547A306F100A947230703
:104FBC00F100EFE01F8A23008B003DB4797106D617
:104FCC0022D426D24AD04ECE52CC56CAEF20E04044
:104FDC00894763F2A70297560200938666461757D5
:104FEC0002001307A71F176602001306E6ABB6856F
:104FFC000D45EF20403F938A019483A70A001709BF
:10500C000020130929C402C63307F9009507034A87
:10501C001700834927008344370023A0FA00034775
:10502C004700CA9703C407002207598CEF20E03AC7
:10503C00894763F3A7029756020093866640A287BE
:10504C00175702001307871917660200130606A8E4
:10505C00B6850D45EF20203983A70A00130760039E
:10506C00850723A0FA00CA9783CA07009387F4FF29
:10507C0093F7F70F6367F704176702001307C7CAA4
:10508C008A07BA979C43BA978287034589007000B8
:10509C00A145EFF0AFEDEF204034894763F3A70251
:1050AC00B2471757020013076713975602009386EF
:1050BC00263917660200130666A3B6850D45EF2048
:1050CC008032EF208031894763F3A702B2479756AD
:1050DC0002009386E636175702001307271017664F
:1050EC0002001306E6BEB6850D45EF20C02F9307D0
:1050FC00D003638BFA3263E1573193071002638854
:10510C00FA389307C003638DFA300145B25022542C
:10511C0092540259F249624AD24A4561828003454F
:10512C00990070009945EFF06FE4EF20002B894750
:10513C00E3F9A7F8B247175702001307270A975647
:10514C0002009386E62F176602001306269CB5B75D
:10515C000345A90070009D45EFF04FE1EF20E027DB
:10516C008947E3F0A7F6B247175702001307070762
:10517C00975602009386C62C176602001306069BF0
:10518C002DBF02C6EF2060258947E3FCA7F2B2478A
:10519C001757020013078704975602009386462A76
:1051AC00176602001306869A09BF0345C9007000F2
:1051BC00C145EFF0AFDBEF2040228947E3F3A7F0C6
:1051CC00B2471757020013076701975602009386E0
:1051DC0026271766020013066699C5B50345D90044
:1051EC007000A545EFF08FD8EF20201F8947E3FA18
:1051FC00A7ECB24717570200130747FE9756020059
:10520C009386062417660200130646987DB502C6DF
:10521C00EF20A01C8947E3F6A7EAB2471757020014
:10522C001307C7FB97560200938686211766020068
:10523C001306C69759B502C6EF20201A8947E3F228
:10524C00A7E8B24717570200130747F99756020011
:10525C009386061F1766020013064697B9BD02C651
:10526C00EF20A0178947E3FEA7E4B24717570200C7
:10527C001307C7F6975602009386861C1766020022
:10528C001306C6961DBD02C6EF2020158947E3FA0A
:10529C00A7E2B24717570200130747F497560200CC
:1052AC009386061A176602001306469639B502C68F
:1052BC00EF20A0128947E3F6A7E0B2471757020088
:1052CC001307C7F1975602009386861717660200DC
:1052DC001306C695DDB302C6EF2020108947E3F212
:1052EC00A7DEB24717570200130747EF9756020085
:1052FC009386061517660200130646957DBB83C779
:10530C00C1913EC6EF20600D8947E3FCA7DAB24796
:10531C0017570200130787EC975602009386461224
:10532C00176602001306869449BBEF20000B8947D1
:10533C009384B19163F4A70283C7040097560200CB
:10534C009386061017570200130747E917660200E9
:10535C0013068693B6850D45EF20E00883C704003D
:10536C003EC685B3EF206007894763F2A7029756C4
:10537C0002009386E60C17570200130727E6176600
:10538C0002001306E691B6850D45EF20C00583C7D4
:10539C00A191F9B783C79191E1B783D70192C9B7AE
:1053AC0083D7E19175BF83C751935DBF83C771925A
:1053BC0045BF83C761926DB783C7519255B783C7F9
:1053CC00419279BF83C7319261BF02C6EF20E000E2
:1053DC008947E3F8A7CEB24717570200130707E037
:1053EC00975602009386C605176602001306868C34
:1053FC00E9B183C72192ADB79307E0036380FA0646
:10540C009307F003E393FAD0220AB3E94901B247B8
:10541C00014563D38908E3DBF9CE33A58700FDB1E1
:10542C00324533258500DDB1EF10307B894763F2BF
:10543C00A702975602009386A6001757020013077F
:10544C00E7D9176602001306A68AB6850D45EF103C
:10545C0090793245018D133515004DB9EF10F07769
:10546C00894763F2A70297560200938666FD175789
:10547C0002001307A7D6176602001306E688B68546
:10548C000D45EF10507632453325A40041B132451D
:10549C00018D3335A0009DB9E3DA37C73325F4000D
:1054AC00B5B1411106C622C4EF103073894763F2BF
:1054BC00A702975602009386A6F817570200130707
:1054CC00E7D1176602001306E693B6850D45EF107B
:1054DC009071138601941C4217F7FF1F13078776F0
:1054EC0093854700BA9703C4170083C627002E97ED
:1054FC000347070083C73700C2066204558CA20716
:10550C00598C5D8C0CC2EF10506D894763F3A70268
:10551C00975602009386C6F2A2871757020013070C
:10552C00E7CB176602001306A68FB6850D45EF1064
:10553C00906BB2402285224441018280411106C603
:10554C00EF10B069894763F2A70297560200938661
:10555C0026EF17570200130767C8176602001306D9
:10556C00A68DB6850D45EF101068B24003C5819429
:10557C009305000841016F30F03101112EC685658D
:10558C0022CC938505802A84414506CEEFC03FD5B9
:10559C00A28562443246F240414505616FC03FD35B
:1055AC0005661306068097F5FF1F9385A56941458F
:1055BC006FC0FFD0411106C622C4EF10106289479C
:1055CC0063F2A70297560200938686E717570200EC
:1055DC001307C7C01766020013060688B6850D456B
:1055EC00EF107060753F97F7FF1F9387A76583C611
:1055FC00070013072005639EE60A83C617001307EE
:10560C0040056398E60A83C627001307500363928C
:10561C00E60A83C6370013071003639CE6080147AC
:10562C0013064005930540041305E00413085004C9
:10563C00930830051303200583C6F7FF639CC6044B
:10564C0083C6E7FF6392160783C6D7FF639E660483
:10565C001384C19318C0EF105058894763F3A70205
:10566C001C40975602009386A6DD175702001307BD
:10567C00E7B61766020013062680B6850D45EF10B7
:10568C0090562244B24003C5819441468545410160
:10569C006F308075639AB60083C6E7FF6396A600E9
:1056AC0083C6D7FFE38606FB0507930607808507AD
:1056BC00C1F6EF109052894763F5A7022244B2401D
:1056CC00975602009386C6D717570200130707B1E7
:1056DC00175602001306C67CB6850D4541016F10A6
:1056EC009050B240224441018280411126C29384E1
:1056FC000193904022C42E8497F5FF1F938585D487
:10570C0006C697B0FF1FE780C03C9C40B240924455
:10571C001CC022444101828023A2019423A0019445
:10572C0023900192239F0190238E0190A38D0190D1
:10573C00238A0192A38A0192238D0190A38C01905C
:10574C0023860192A385019223850192A384019261
:10575C0023840192A383019223830192A382019259
:10576C0023820192A381019223810192238C0190C7
:10577C008280011122CC4AC84EC606CE26CA1764B6
:10578C0002001304E4A717690200130929ACFD59A0
:10579C000440638834012685EF10C05E2685EF1027
:1057AC00E0561104E31624FF89455145EF10905E35
:1057BC0081455145EF10306B89455D45EF10905D8B
:1057CC0081455D45EF10306A894513057002EF1075
:1057DC00705C814513057002EF10F06889455945DE
:1057EC00EF10505B81455945EF10F0678945214515
:1057FC00EF10505A81452145EF10F0668945194547
:10580C00EF10505981451945EF10F06589451D453C
:10581C00EF10505881451D45EF10F06489457D55BA
:10582C00EF10505781457D55EF10F0638945414588
:10583C00EF10505681454145EF10F06289452545E2
:10584C00EF10505581452545EF10F06189457D5588
:10585C00EF10505481457D55EF10F06089457D5512
:10586C00EF10505381457D55EF10F05F89457D5504
:10587C00EF10505281457D55EF10F05E89457D55F6
:10588C00EF10505181457D55EF10F05D89457D55E8
:10589C00EF10505081457D55EF10F05C89457D55DA
:1058AC00EF10504F81457D55EF10F05B8945294530
:1058BC00EF10504E81452945EF10F05A89452D4582
:1058CC00EF10504D81452D45EF10F05989457D5510
:1058DC00EF10504C81457D55EF10F05889457D55A2
:1058EC00EF10504B81457D55EF10F0576244F2405C
:1058FC00D2444249B249056105B5797193970501C6
:10590C004AD006D622D426D24ECE52CC56CA5AC82B
:10591C005EC662C4C1872E8963DE0704EF20506A1D
:10592C002A8415C9EF10702B894763F3A702975689
:10593C0002009386E6B0A287175702001307078A66
:10594C001756020013068657B6850D45EF10B02981
:10595C002285EF20D05A21653345A900B25022543C
:10596C0092540259F249624AD24A424BB24B224CEF
:10597C004561828093F71500CDC7EF10102689473B
:10598C0063F2A70297560200938686AB1757020064
:10599C001307C7841756020013064653B6850D45E8
:1059AC00EF107024EF107023894763F2A70297560B
:1059BC0002009386E6A81757020013072782175692
:1059CC00020013066652B6850D45EF10D021EF107C
:1059DC00D02009446373A402EF103020637FA4002D
:1059EC008D4603D6C19397F5FF1F9385A5251755B3
:1059FC0002001305E5A4EF103028EFE0BFE9930790
:105A0C00300441469305000803C5819423A0F1940A
:105A1C00239C0192239B0192EF30003D134519000A
:105A2C0035BF93F70508638A0740EF10101B8947B1
:105A3C001384019463F3A7021C40975602009386CB
:105A4C0026A01747020013076779175602001306A2
:105A5C00664BB6850D45EF1010191C4097F4FF1FCF
:105A6C009384441E1307C006A69783C70700938927
:105A7C008193638CE72E636AF700638E07341307F8
:105A8C004006638DE71E294A91A01307F006638F29
:105A9C00E71A13077007E398E7FEEFF09FA02A8A36
:105AAC00EF10B013894763F3A70297560200938651
:105ABC002699D28717470200130747721756020020
:105ACC0013064648B6850D45EF10F0111440938728
